{
	"task3/BeggingContract.sol": {
		"BeggingContract": {
			"abi": [
				{
					"inputs": [
						{
							"internalType": "address",
							"name": "_owner",
							"type": "address"
						}
					],
					"stateMutability": "nonpayable",
					"type": "constructor"
				},
				{
					"anonymous": false,
					"inputs": [
						{
							"indexed": false,
							"internalType": "address",
							"name": "",
							"type": "address"
						},
						{
							"indexed": false,
							"internalType": "uint256",
							"name": "",
							"type": "uint256"
						},
						{
							"indexed": false,
							"internalType": "string",
							"name": "",
							"type": "string"
						}
					],
					"name": "CallFailed",
					"type": "event"
				},
				{
					"anonymous": false,
					"inputs": [
						{
							"indexed": false,
							"internalType": "address",
							"name": "",
							"type": "address"
						},
						{
							"indexed": false,
							"internalType": "uint256",
							"name": "",
							"type": "uint256"
						}
					],
					"name": "Donation",
					"type": "event"
				},
				{
					"anonymous": false,
					"inputs": [
						{
							"indexed": false,
							"internalType": "address",
							"name": "",
							"type": "address"
						},
						{
							"indexed": false,
							"internalType": "uint256",
							"name": "",
							"type": "uint256"
						},
						{
							"indexed": false,
							"internalType": "string",
							"name": "",
							"type": "string"
						}
					],
					"name": "Withdrawn",
					"type": "event"
				},
				{
					"inputs": [],
					"name": "donate",
					"outputs": [
						{
							"internalType": "bool",
							"name": "",
							"type": "bool"
						}
					],
					"stateMutability": "payable",
					"type": "function"
				},
				{
					"inputs": [
						{
							"internalType": "address",
							"name": "",
							"type": "address"
						}
					],
					"name": "donateAmounts",
					"outputs": [
						{
							"internalType": "uint256",
							"name": "",
							"type": "uint256"
						}
					],
					"stateMutability": "view",
					"type": "function"
				},
				{
					"inputs": [
						{
							"internalType": "uint256",
							"name": "",
							"type": "uint256"
						}
					],
					"name": "doners",
					"outputs": [
						{
							"internalType": "address",
							"name": "",
							"type": "address"
						}
					],
					"stateMutability": "view",
					"type": "function"
				},
				{
					"inputs": [
						{
							"internalType": "address",
							"name": "donateAddr",
							"type": "address"
						}
					],
					"name": "getDonation",
					"outputs": [
						{
							"internalType": "uint256",
							"name": "",
							"type": "uint256"
						}
					],
					"stateMutability": "view",
					"type": "function"
				},
				{
					"inputs": [],
					"name": "getTopThreeDonateAddr",
					"outputs": [
						{
							"internalType": "address[]",
							"name": "",
							"type": "address[]"
						}
					],
					"stateMutability": "view",
					"type": "function"
				},
				{
					"inputs": [],
					"name": "isDonateTime",
					"outputs": [
						{
							"internalType": "uint256",
							"name": "",
							"type": "uint256"
						}
					],
					"stateMutability": "view",
					"type": "function"
				},
				{
					"inputs": [],
					"name": "owner",
					"outputs": [
						{
							"internalType": "address",
							"name": "",
							"type": "address"
						}
					],
					"stateMutability": "view",
					"type": "function"
				},
				{
					"inputs": [],
					"name": "withdrawn",
					"outputs": [],
					"stateMutability": "nonpayable",
					"type": "function"
				}
			],
			"devdoc": {
				"kind": "dev",
				"methods": {},
				"version": 1
			},
			"evm": {
				"assembly": "    /* \"task3/BeggingContract.sol\":74:3751  contract BeggingContract {... */\n  mstore(0x40, 0x80)\n    /* \"task3/BeggingContract.sol\":267:325  constructor(address _owner){... */\n  callvalue\n  dup1\n  iszero\n  tag_1\n  jumpi\n  revert(0x00, 0x00)\ntag_1:\n  pop\n  mload(0x40)\n  sub(codesize, bytecodeSize)\n  dup1\n  bytecodeSize\n  dup4\n  codecopy\n  dup2\n  dup2\n  add\n  0x40\n  mstore\n  dup2\n  add\n  swap1\n  tag_2\n  swap2\n  swap1\n  tag_3\n  jump\t// in\ntag_2:\n    /* \"task3/BeggingContract.sol\":312:318  _owner */\n  dup1\n    /* \"task3/BeggingContract.sol\":304:309  owner */\n  0x01\n  0x00\n    /* \"task3/BeggingContract.sol\":304:318  owner = _owner */\n  0x0100\n  exp\n  dup2\n  sload\n  dup2\n  0xffffffffffffffffffffffffffffffffffffffff\n  mul\n  not\n  and\n  swap1\n  dup4\n  0xffffffffffffffffffffffffffffffffffffffff\n  and\n  mul\n  or\n  swap1\n  sstore\n  pop\n    /* \"task3/BeggingContract.sol\":267:325  constructor(address _owner){... */\n  pop\n    /* \"task3/BeggingContract.sol\":74:3751  contract BeggingContract {... */\n  jump(tag_6)\n    /* \"#utility.yul\":88:205   */\ntag_8:\n    /* \"#utility.yul\":197:198   */\n  0x00\n    /* \"#utility.yul\":194:195   */\n  0x00\n    /* \"#utility.yul\":187:199   */\n  revert\n    /* \"#utility.yul\":334:460   */\ntag_10:\n    /* \"#utility.yul\":371:378   */\n  0x00\n    /* \"#utility.yul\":411:453   */\n  0xffffffffffffffffffffffffffffffffffffffff\n    /* \"#utility.yul\":404:409   */\n  dup3\n    /* \"#utility.yul\":400:454   */\n  and\n    /* \"#utility.yul\":389:454   */\n  swap1\n  pop\n    /* \"#utility.yul\":334:460   */\n  swap2\n  swap1\n  pop\n  jump\t// out\n    /* \"#utility.yul\":466:562   */\ntag_11:\n    /* \"#utility.yul\":503:510   */\n  0x00\n    /* \"#utility.yul\":532:556   */\n  tag_20\n    /* \"#utility.yul\":550:555   */\n  dup3\n    /* \"#utility.yul\":532:556   */\n  tag_10\n  jump\t// in\ntag_20:\n    /* \"#utility.yul\":521:556   */\n  swap1\n  pop\n    /* \"#utility.yul\":466:562   */\n  swap2\n  swap1\n  pop\n  jump\t// out\n    /* \"#utility.yul\":568:690   */\ntag_12:\n    /* \"#utility.yul\":641:665   */\n  tag_22\n    /* \"#utility.yul\":659:664   */\n  dup2\n    /* \"#utility.yul\":641:665   */\n  tag_11\n  jump\t// in\ntag_22:\n    /* \"#utility.yul\":634:639   */\n  dup2\n    /* \"#utility.yul\":631:666   */\n  eq\n    /* \"#utility.yul\":621:684   */\n  tag_23\n  jumpi\n    /* \"#utility.yul\":680:681   */\n  0x00\n    /* \"#utility.yul\":677:678   */\n  0x00\n    /* \"#utility.yul\":670:682   */\n  revert\n    /* \"#utility.yul\":621:684   */\ntag_23:\n    /* \"#utility.yul\":568:690   */\n  pop\n  jump\t// out\n    /* \"#utility.yul\":696:839   */\ntag_13:\n    /* \"#utility.yul\":753:758   */\n  0x00\n    /* \"#utility.yul\":784:790   */\n  dup2\n    /* \"#utility.yul\":778:791   */\n  mload\n    /* \"#utility.yul\":769:791   */\n  swap1\n  pop\n    /* \"#utility.yul\":800:833   */\n  tag_25\n    /* \"#utility.yul\":827:832   */\n  dup2\n    /* \"#utility.yul\":800:833   */\n  tag_12\n  jump\t// in\ntag_25:\n    /* \"#utility.yul\":696:839   */\n  swap3\n  swap2\n  pop\n  pop\n  jump\t// out\n    /* \"#utility.yul\":845:1196   */\ntag_3:\n    /* \"#utility.yul\":915:921   */\n  0x00\n    /* \"#utility.yul\":964:966   */\n  0x20\n    /* \"#utility.yul\":952:961   */\n  dup3\n    /* \"#utility.yul\":943:950   */\n  dup5\n    /* \"#utility.yul\":939:962   */\n  sub\n    /* \"#utility.yul\":935:967   */\n  slt\n    /* \"#utility.yul\":932:1051   */\n  iszero\n  tag_27\n  jumpi\n    /* \"#utility.yul\":970:1049   */\n  tag_28\n  tag_8\n  jump\t// in\ntag_28:\n    /* \"#utility.yul\":932:1051   */\ntag_27:\n    /* \"#utility.yul\":1090:1091   */\n  0x00\n    /* \"#utility.yul\":1115:1179   */\n  tag_29\n    /* \"#utility.yul\":1171:1178   */\n  dup5\n    /* \"#utility.yul\":1162:1168   */\n  dup3\n    /* \"#utility.yul\":1151:1160   */\n  dup6\n    /* \"#utility.yul\":1147:1169   */\n  add\n    /* \"#utility.yul\":1115:1179   */\n  tag_13\n  jump\t// in\ntag_29:\n    /* \"#utility.yul\":1105:1179   */\n  swap2\n  pop\n    /* \"#utility.yul\":1061:1189   */\n  pop\n    /* \"#utility.yul\":845:1196   */\n  swap3\n  swap2\n  pop\n  pop\n  jump\t// out\n    /* \"task3/BeggingContract.sol\":74:3751  contract BeggingContract {... */\ntag_6:\n  dataSize(sub_0)\n  dup1\n  dataOffset(sub_0)\n  0x00\n  codecopy\n  0x00\n  return\nstop\n\nsub_0: assembly {\n        /* \"task3/BeggingContract.sol\":74:3751  contract BeggingContract {... */\n      mstore(0x40, 0x80)\n      jumpi(tag_1, lt(calldatasize, 0x04))\n      shr(0xe0, calldataload(0x00))\n      dup1\n      0xa050a6a6\n      gt\n      tag_10\n      jumpi\n      dup1\n      0xa050a6a6\n      eq\n      tag_6\n      jumpi\n      dup1\n      0xa757ecec\n      eq\n      tag_7\n      jumpi\n      dup1\n      0xc80ec522\n      eq\n      tag_8\n      jumpi\n      dup1\n      0xed88c68e\n      eq\n      tag_9\n      jumpi\n      jump(tag_1)\n    tag_10:\n      dup1\n      0x016c9464\n      eq\n      tag_2\n      jumpi\n      dup1\n      0x410a1d32\n      eq\n      tag_3\n      jumpi\n      dup1\n      0x56a01efe\n      eq\n      tag_4\n      jumpi\n      dup1\n      0x8da5cb5b\n      eq\n      tag_5\n      jumpi\n    tag_1:\n      revert(0x00, 0x00)\n        /* \"task3/BeggingContract.sol\":2251:3530  function getTopThreeDonateAddr() public view returns(address[] memory) {... */\n    tag_2:\n      callvalue\n      dup1\n      iszero\n      tag_11\n      jumpi\n      revert(0x00, 0x00)\n    tag_11:\n      pop\n      tag_12\n      tag_13\n      jump\t// in\n    tag_12:\n      mload(0x40)\n      tag_14\n      swap2\n      swap1\n      tag_15\n      jump\t// in\n    tag_14:\n      mload(0x40)\n      dup1\n      swap2\n      sub\n      swap1\n      return\n        /* \"task3/BeggingContract.sol\":1959:2157  function getDonation(address donateAddr) public view returns(uint256){... */\n    tag_3:\n      callvalue\n      dup1\n      iszero\n      tag_16\n      jumpi\n      revert(0x00, 0x00)\n    tag_16:\n      pop\n      tag_17\n      0x04\n      dup1\n      calldatasize\n      sub\n      dup2\n      add\n      swap1\n      tag_18\n      swap2\n      swap1\n      tag_19\n      jump\t// in\n    tag_18:\n      tag_20\n      jump\t// in\n    tag_17:\n      mload(0x40)\n      tag_21\n      swap2\n      swap1\n      tag_22\n      jump\t// in\n    tag_21:\n      mload(0x40)\n      dup1\n      swap2\n      sub\n      swap1\n      return\n        /* \"task3/BeggingContract.sol\":3580:3744  function isDonateTime() public view returns(uint256) {... */\n    tag_4:\n      callvalue\n      dup1\n      iszero\n      tag_23\n      jumpi\n      revert(0x00, 0x00)\n    tag_23:\n      pop\n      tag_24\n      tag_25\n      jump\t// in\n    tag_24:\n      mload(0x40)\n      tag_26\n      swap2\n      swap1\n      tag_22\n      jump\t// in\n    tag_26:\n      mload(0x40)\n      dup1\n      swap2\n      sub\n      swap1\n      return\n        /* \"task3/BeggingContract.sol\":211:231  address public owner */\n    tag_5:\n      callvalue\n      dup1\n      iszero\n      tag_27\n      jumpi\n      revert(0x00, 0x00)\n    tag_27:\n      pop\n      tag_28\n      tag_29\n      jump\t// in\n    tag_28:\n      mload(0x40)\n      tag_30\n      swap2\n      swap1\n      tag_31\n      jump\t// in\n    tag_30:\n      mload(0x40)\n      dup1\n      swap2\n      sub\n      swap1\n      return\n        /* \"task3/BeggingContract.sol\":156:205  mapping (address => uint256) public donateAmounts */\n    tag_6:\n      callvalue\n      dup1\n      iszero\n      tag_32\n      jumpi\n      revert(0x00, 0x00)\n    tag_32:\n      pop\n      tag_33\n      0x04\n      dup1\n      calldatasize\n      sub\n      dup2\n      add\n      swap1\n      tag_34\n      swap2\n      swap1\n      tag_19\n      jump\t// in\n    tag_34:\n      tag_35\n      jump\t// in\n    tag_33:\n      mload(0x40)\n      tag_36\n      swap2\n      swap1\n      tag_22\n      jump\t// in\n    tag_36:\n      mload(0x40)\n      dup1\n      swap2\n      sub\n      swap1\n      return\n        /* \"task3/BeggingContract.sol\":237:260  address[] public doners */\n    tag_7:\n      callvalue\n      dup1\n      iszero\n      tag_37\n      jumpi\n      revert(0x00, 0x00)\n    tag_37:\n      pop\n      tag_38\n      0x04\n      dup1\n      calldatasize\n      sub\n      dup2\n      add\n      swap1\n      tag_39\n      swap2\n      swap1\n      tag_40\n      jump\t// in\n    tag_39:\n      tag_41\n      jump\t// in\n    tag_38:\n      mload(0x40)\n      tag_42\n      swap2\n      swap1\n      tag_31\n      jump\t// in\n    tag_42:\n      mload(0x40)\n      dup1\n      swap2\n      sub\n      swap1\n      return\n        /* \"task3/BeggingContract.sol\":1599:1913  function withdrawn() public onlyOwner {... */\n    tag_8:\n      callvalue\n      dup1\n      iszero\n      tag_43\n      jumpi\n      revert(0x00, 0x00)\n    tag_43:\n      pop\n      tag_44\n      tag_45\n      jump\t// in\n    tag_44:\n      stop\n        /* \"task3/BeggingContract.sol\":891:1526  function donate() public limitTime payable returns(bool) {... */\n    tag_9:\n      tag_46\n      tag_47\n      jump\t// in\n    tag_46:\n      mload(0x40)\n      tag_48\n      swap2\n      swap1\n      tag_49\n      jump\t// in\n    tag_48:\n      mload(0x40)\n      dup1\n      swap2\n      sub\n      swap1\n      return\n        /* \"task3/BeggingContract.sol\":2251:3530  function getTopThreeDonateAddr() public view returns(address[] memory) {... */\n    tag_13:\n        /* \"task3/BeggingContract.sol\":2304:2320  address[] memory */\n      0x60\n        /* \"task3/BeggingContract.sol\":2332:2357  address[] memory topThree */\n      0x00\n        /* \"task3/BeggingContract.sol\":2374:2375  3 */\n      0x03\n        /* \"task3/BeggingContract.sol\":2360:2376  new address[](3) */\n      0xffffffffffffffff\n      dup2\n      gt\n      iszero\n      tag_51\n      jumpi\n      tag_52\n      tag_53\n      jump\t// in\n    tag_52:\n    tag_51:\n      mload(0x40)\n      swap1\n      dup1\n      dup3\n      mstore\n      dup1\n      0x20\n      mul\n      0x20\n      add\n      dup3\n      add\n      0x40\n      mstore\n      dup1\n      iszero\n      tag_54\n      jumpi\n      dup2\n      0x20\n      add\n      0x20\n      dup3\n      mul\n      dup1\n      calldatasize\n      dup4\n      calldatacopy\n      dup1\n      dup3\n      add\n      swap2\n      pop\n      pop\n      swap1\n      pop\n    tag_54:\n      pop\n        /* \"task3/BeggingContract.sol\":2332:2376  address[] memory topThree = new address[](3) */\n      swap1\n      pop\n        /* \"task3/BeggingContract.sol\":2406:2407  0 */\n      0x00\n        /* \"task3/BeggingContract.sol\":2389:2395  doners */\n      0x02\n        /* \"task3/BeggingContract.sol\":2389:2402  doners.length */\n      dup1\n      sload\n      swap1\n      pop\n        /* \"task3/BeggingContract.sol\":2389:2407  doners.length == 0 */\n      sub\n        /* \"task3/BeggingContract.sol\":2386:2449  if(doners.length == 0) {... */\n      tag_55\n      jumpi\n        /* \"task3/BeggingContract.sol\":2430:2438  topThree */\n      dup1\n        /* \"task3/BeggingContract.sol\":2423:2438  return topThree */\n      swap2\n      pop\n      pop\n      jump(tag_50)\n        /* \"task3/BeggingContract.sol\":2386:2449  if(doners.length == 0) {... */\n    tag_55:\n        /* \"task3/BeggingContract.sol\":2458:2477  uint256 donersCount */\n      0x00\n        /* \"task3/BeggingContract.sol\":2480:2486  doners */\n      0x02\n        /* \"task3/BeggingContract.sol\":2480:2493  doners.length */\n      dup1\n      sload\n      swap1\n      pop\n        /* \"task3/BeggingContract.sol\":2458:2493  uint256 donersCount = doners.length */\n      swap1\n      pop\n        /* \"task3/BeggingContract.sol\":2504:2530  address[] memory tempAddrs */\n      0x00\n        /* \"task3/BeggingContract.sol\":2547:2558  donersCount */\n      dup2\n        /* \"task3/BeggingContract.sol\":2533:2559  new address[](donersCount) */\n      0xffffffffffffffff\n      dup2\n      gt\n      iszero\n      tag_56\n      jumpi\n      tag_57\n      tag_53\n      jump\t// in\n    tag_57:\n    tag_56:\n      mload(0x40)\n      swap1\n      dup1\n      dup3\n      mstore\n      dup1\n      0x20\n      mul\n      0x20\n      add\n      dup3\n      add\n      0x40\n      mstore\n      dup1\n      iszero\n      tag_58\n      jumpi\n      dup2\n      0x20\n      add\n      0x20\n      dup3\n      mul\n      dup1\n      calldatasize\n      dup4\n      calldatacopy\n      dup1\n      dup3\n      add\n      swap2\n      pop\n      pop\n      swap1\n      pop\n    tag_58:\n      pop\n        /* \"task3/BeggingContract.sol\":2504:2559  address[] memory tempAddrs = new address[](donersCount) */\n      swap1\n      pop\n        /* \"task3/BeggingContract.sol\":2569:2602  uint256[] memory tempDonateAmount */\n      0x00\n        /* \"task3/BeggingContract.sol\":2619:2630  donersCount */\n      dup3\n        /* \"task3/BeggingContract.sol\":2605:2631  new uint256[](donersCount) */\n      0xffffffffffffffff\n      dup2\n      gt\n      iszero\n      tag_59\n      jumpi\n      tag_60\n      tag_53\n      jump\t// in\n    tag_60:\n    tag_59:\n      mload(0x40)\n      swap1\n      dup1\n      dup3\n      mstore\n      dup1\n      0x20\n      mul\n      0x20\n      add\n      dup3\n      add\n      0x40\n      mstore\n      dup1\n      iszero\n      tag_61\n      jumpi\n      dup2\n      0x20\n      add\n      0x20\n      dup3\n      mul\n      dup1\n      calldatasize\n      dup4\n      calldatacopy\n      dup1\n      dup3\n      add\n      swap2\n      pop\n      pop\n      swap1\n      pop\n    tag_61:\n      pop\n        /* \"task3/BeggingContract.sol\":2569:2631  uint256[] memory tempDonateAmount = new uint256[](donersCount) */\n      swap1\n      pop\n        /* \"task3/BeggingContract.sol\":2647:2656  uint256 i */\n      0x00\n        /* \"task3/BeggingContract.sol\":2659:2660  0 */\n      0x00\n        /* \"task3/BeggingContract.sol\":2647:2660  uint256 i = 0 */\n      swap1\n      pop\n        /* \"task3/BeggingContract.sol\":2642:2793  for (uint256 i = 0; i < donersCount; i++) {... */\n    tag_62:\n        /* \"task3/BeggingContract.sol\":2666:2677  donersCount */\n      dup4\n        /* \"task3/BeggingContract.sol\":2662:2663  i */\n      dup2\n        /* \"task3/BeggingContract.sol\":2662:2677  i < donersCount */\n      lt\n        /* \"task3/BeggingContract.sol\":2642:2793  for (uint256 i = 0; i < donersCount; i++) {... */\n      iszero\n      tag_63\n      jumpi\n        /* \"task3/BeggingContract.sol\":2713:2719  doners */\n      0x02\n        /* \"task3/BeggingContract.sol\":2720:2721  i */\n      dup2\n        /* \"task3/BeggingContract.sol\":2713:2722  doners[i] */\n      dup2\n      sload\n      dup2\n      lt\n      tag_65\n      jumpi\n      tag_66\n      tag_67\n      jump\t// in\n    tag_66:\n    tag_65:\n      swap1\n      0x00\n      mstore\n      keccak256(0x00, 0x20)\n      add\n      0x00\n      swap1\n      sload\n      swap1\n      0x0100\n      exp\n      swap1\n      div\n      0xffffffffffffffffffffffffffffffffffffffff\n      and\n        /* \"task3/BeggingContract.sol\":2698:2707  tempAddrs */\n      dup4\n        /* \"task3/BeggingContract.sol\":2708:2709  i */\n      dup3\n        /* \"task3/BeggingContract.sol\":2698:2710  tempAddrs[i] */\n      dup2\n      mload\n      dup2\n      lt\n      tag_69\n      jumpi\n      tag_70\n      tag_67\n      jump\t// in\n    tag_70:\n    tag_69:\n      0x20\n      mul\n      0x20\n      add\n      add\n        /* \"task3/BeggingContract.sol\":2698:2722  tempAddrs[i] = doners[i] */\n      swap1\n      0xffffffffffffffffffffffffffffffffffffffff\n      and\n      swap1\n      dup2\n      0xffffffffffffffffffffffffffffffffffffffff\n      and\n      dup2\n      mstore\n      pop\n      pop\n        /* \"task3/BeggingContract.sol\":2758:2771  donateAmounts */\n      0x00\n        /* \"task3/BeggingContract.sol\":2758:2782  donateAmounts[doners[i]] */\n      0x00\n        /* \"task3/BeggingContract.sol\":2772:2778  doners */\n      0x02\n        /* \"task3/BeggingContract.sol\":2779:2780  i */\n      dup4\n        /* \"task3/BeggingContract.sol\":2772:2781  doners[i] */\n      dup2\n      sload\n      dup2\n      lt\n      tag_71\n      jumpi\n      tag_72\n      tag_67\n      jump\t// in\n    tag_72:\n    tag_71:\n      swap1\n      0x00\n      mstore\n      keccak256(0x00, 0x20)\n      add\n      0x00\n      swap1\n      sload\n      swap1\n      0x0100\n      exp\n      swap1\n      div\n      0xffffffffffffffffffffffffffffffffffffffff\n      and\n        /* \"task3/BeggingContract.sol\":2758:2782  donateAmounts[doners[i]] */\n      0xffffffffffffffffffffffffffffffffffffffff\n      and\n      0xffffffffffffffffffffffffffffffffffffffff\n      and\n      dup2\n      mstore\n      0x20\n      add\n      swap1\n      dup2\n      mstore\n      0x20\n      add\n      0x00\n      keccak256\n      sload\n        /* \"task3/BeggingContract.sol\":2736:2752  tempDonateAmount */\n      dup3\n        /* \"task3/BeggingContract.sol\":2753:2754  i */\n      dup3\n        /* \"task3/BeggingContract.sol\":2736:2755  tempDonateAmount[i] */\n      dup2\n      mload\n      dup2\n      lt\n      tag_74\n      jumpi\n      tag_75\n      tag_67\n      jump\t// in\n    tag_75:\n    tag_74:\n      0x20\n      mul\n      0x20\n      add\n      add\n        /* \"task3/BeggingContract.sol\":2736:2782  tempDonateAmount[i] = donateAmounts[doners[i]] */\n      dup2\n      dup2\n      mstore\n      pop\n      pop\n        /* \"task3/BeggingContract.sol\":2679:2682  i++ */\n      dup1\n      dup1\n      0x01\n      add\n      swap2\n      pop\n      pop\n        /* \"task3/BeggingContract.sol\":2642:2793  for (uint256 i = 0; i < donersCount; i++) {... */\n      jump(tag_62)\n    tag_63:\n      pop\n        /* \"task3/BeggingContract.sol\":2808:2817  uint256 i */\n      0x00\n        /* \"task3/BeggingContract.sol\":2820:2821  0 */\n      0x00\n        /* \"task3/BeggingContract.sol\":2808:2821  uint256 i = 0 */\n      swap1\n      pop\n        /* \"task3/BeggingContract.sol\":2803:3334  for (uint256 i = 0; i < donersCount; i++) {... */\n    tag_76:\n        /* \"task3/BeggingContract.sol\":2827:2838  donersCount */\n      dup4\n        /* \"task3/BeggingContract.sol\":2823:2824  i */\n      dup2\n        /* \"task3/BeggingContract.sol\":2823:2838  i < donersCount */\n      lt\n        /* \"task3/BeggingContract.sol\":2803:3334  for (uint256 i = 0; i < donersCount; i++) {... */\n      iszero\n      tag_77\n      jumpi\n        /* \"task3/BeggingContract.sol\":2864:2873  uint256 j */\n      0x00\n        /* \"task3/BeggingContract.sol\":2880:2881  1 */\n      0x01\n        /* \"task3/BeggingContract.sol\":2876:2877  i */\n      dup3\n        /* \"task3/BeggingContract.sol\":2876:2881  i + 1 */\n      tag_82\n      swap2\n      swap1\n      tag_83\n      jump\t// in\n    tag_82:\n        /* \"task3/BeggingContract.sol\":2864:2881  uint256 j = i + 1 */\n      swap1\n      pop\n        /* \"task3/BeggingContract.sol\":2859:3324  for (uint256 j = i + 1; j<donersCount; j++) {... */\n    tag_79:\n        /* \"task3/BeggingContract.sol\":2885:2896  donersCount */\n      dup5\n        /* \"task3/BeggingContract.sol\":2883:2884  j */\n      dup2\n        /* \"task3/BeggingContract.sol\":2883:2896  j<donersCount */\n      lt\n        /* \"task3/BeggingContract.sol\":2859:3324  for (uint256 j = i + 1; j<donersCount; j++) {... */\n      iszero\n      tag_80\n      jumpi\n        /* \"task3/BeggingContract.sol\":2947:2963  tempDonateAmount */\n      dup3\n        /* \"task3/BeggingContract.sol\":2964:2965  j */\n      dup2\n        /* \"task3/BeggingContract.sol\":2947:2966  tempDonateAmount[j] */\n      dup2\n      mload\n      dup2\n      lt\n      tag_84\n      jumpi\n      tag_85\n      tag_67\n      jump\t// in\n    tag_85:\n    tag_84:\n      0x20\n      mul\n      0x20\n      add\n      add\n      mload\n        /* \"task3/BeggingContract.sol\":2925:2941  tempDonateAmount */\n      dup4\n        /* \"task3/BeggingContract.sol\":2942:2943  i */\n      dup4\n        /* \"task3/BeggingContract.sol\":2925:2944  tempDonateAmount[i] */\n      dup2\n      mload\n      dup2\n      lt\n      tag_86\n      jumpi\n      tag_87\n      tag_67\n      jump\t// in\n    tag_87:\n    tag_86:\n      0x20\n      mul\n      0x20\n      add\n      add\n      mload\n        /* \"task3/BeggingContract.sol\":2925:2966  tempDonateAmount[i] < tempDonateAmount[j] */\n      lt\n        /* \"task3/BeggingContract.sol\":2921:3310  if (tempDonateAmount[i] < tempDonateAmount[j]) {... */\n      iszero\n      tag_88\n      jumpi\n        /* \"task3/BeggingContract.sol\":2990:3007  uint256 temAmount */\n      0x00\n        /* \"task3/BeggingContract.sol\":3010:3026  tempDonateAmount */\n      dup4\n        /* \"task3/BeggingContract.sol\":3027:3028  i */\n      dup4\n        /* \"task3/BeggingContract.sol\":3010:3029  tempDonateAmount[i] */\n      dup2\n      mload\n      dup2\n      lt\n      tag_89\n      jumpi\n      tag_90\n      tag_67\n      jump\t// in\n    tag_90:\n    tag_89:\n      0x20\n      mul\n      0x20\n      add\n      add\n      mload\n        /* \"task3/BeggingContract.sol\":2990:3029  uint256 temAmount = tempDonateAmount[i] */\n      swap1\n      pop\n        /* \"task3/BeggingContract.sol\":3073:3089  tempDonateAmount */\n      dup4\n        /* \"task3/BeggingContract.sol\":3090:3091  j */\n      dup3\n        /* \"task3/BeggingContract.sol\":3073:3092  tempDonateAmount[j] */\n      dup2\n      mload\n      dup2\n      lt\n      tag_91\n      jumpi\n      tag_92\n      tag_67\n      jump\t// in\n    tag_92:\n    tag_91:\n      0x20\n      mul\n      0x20\n      add\n      add\n      mload\n        /* \"task3/BeggingContract.sol\":3051:3067  tempDonateAmount */\n      dup5\n        /* \"task3/BeggingContract.sol\":3068:3069  i */\n      dup5\n        /* \"task3/BeggingContract.sol\":3051:3070  tempDonateAmount[i] */\n      dup2\n      mload\n      dup2\n      lt\n      tag_93\n      jumpi\n      tag_94\n      tag_67\n      jump\t// in\n    tag_94:\n    tag_93:\n      0x20\n      mul\n      0x20\n      add\n      add\n        /* \"task3/BeggingContract.sol\":3051:3092  tempDonateAmount[i] = tempDonateAmount[j] */\n      dup2\n      dup2\n      mstore\n      pop\n      pop\n        /* \"task3/BeggingContract.sol\":3136:3145  temAmount */\n      dup1\n        /* \"task3/BeggingContract.sol\":3114:3130  tempDonateAmount */\n      dup5\n        /* \"task3/BeggingContract.sol\":3131:3132  j */\n      dup4\n        /* \"task3/BeggingContract.sol\":3114:3133  tempDonateAmount[j] */\n      dup2\n      mload\n      dup2\n      lt\n      tag_95\n      jumpi\n      tag_96\n      tag_67\n      jump\t// in\n    tag_96:\n    tag_95:\n      0x20\n      mul\n      0x20\n      add\n      add\n        /* \"task3/BeggingContract.sol\":3114:3145  tempDonateAmount[j] = temAmount */\n      dup2\n      dup2\n      mstore\n      pop\n      pop\n        /* \"task3/BeggingContract.sol\":3168:3183  address temAddr */\n      0x00\n        /* \"task3/BeggingContract.sol\":3186:3195  tempAddrs */\n      dup6\n        /* \"task3/BeggingContract.sol\":3196:3197  i */\n      dup5\n        /* \"task3/BeggingContract.sol\":3186:3198  tempAddrs[i] */\n      dup2\n      mload\n      dup2\n      lt\n      tag_97\n      jumpi\n      tag_98\n      tag_67\n      jump\t// in\n    tag_98:\n    tag_97:\n      0x20\n      mul\n      0x20\n      add\n      add\n      mload\n        /* \"task3/BeggingContract.sol\":3168:3198  address temAddr = tempAddrs[i] */\n      swap1\n      pop\n        /* \"task3/BeggingContract.sol\":3235:3244  tempAddrs */\n      dup6\n        /* \"task3/BeggingContract.sol\":3245:3246  j */\n      dup4\n        /* \"task3/BeggingContract.sol\":3235:3247  tempAddrs[j] */\n      dup2\n      mload\n      dup2\n      lt\n      tag_99\n      jumpi\n      tag_100\n      tag_67\n      jump\t// in\n    tag_100:\n    tag_99:\n      0x20\n      mul\n      0x20\n      add\n      add\n      mload\n        /* \"task3/BeggingContract.sol\":3220:3229  tempAddrs */\n      dup7\n        /* \"task3/BeggingContract.sol\":3230:3231  i */\n      dup6\n        /* \"task3/BeggingContract.sol\":3220:3232  tempAddrs[i] */\n      dup2\n      mload\n      dup2\n      lt\n      tag_101\n      jumpi\n      tag_102\n      tag_67\n      jump\t// in\n    tag_102:\n    tag_101:\n      0x20\n      mul\n      0x20\n      add\n      add\n        /* \"task3/BeggingContract.sol\":3220:3247  tempAddrs[i] = tempAddrs[j] */\n      swap1\n      0xffffffffffffffffffffffffffffffffffffffff\n      and\n      swap1\n      dup2\n      0xffffffffffffffffffffffffffffffffffffffff\n      and\n      dup2\n      mstore\n      pop\n      pop\n        /* \"task3/BeggingContract.sol\":3284:3291  temAddr */\n      dup1\n        /* \"task3/BeggingContract.sol\":3269:3278  tempAddrs */\n      dup7\n        /* \"task3/BeggingContract.sol\":3279:3280  j */\n      dup5\n        /* \"task3/BeggingContract.sol\":3269:3281  tempAddrs[j] */\n      dup2\n      mload\n      dup2\n      lt\n      tag_103\n      jumpi\n      tag_104\n      tag_67\n      jump\t// in\n    tag_104:\n    tag_103:\n      0x20\n      mul\n      0x20\n      add\n      add\n        /* \"task3/BeggingContract.sol\":3269:3291  tempAddrs[j] = temAddr */\n      swap1\n      0xffffffffffffffffffffffffffffffffffffffff\n      and\n      swap1\n      dup2\n      0xffffffffffffffffffffffffffffffffffffffff\n      and\n      dup2\n      mstore\n      pop\n      pop\n        /* \"task3/BeggingContract.sol\":2968:3310  {... */\n      pop\n      pop\n        /* \"task3/BeggingContract.sol\":2921:3310  if (tempDonateAmount[i] < tempDonateAmount[j]) {... */\n    tag_88:\n        /* \"task3/BeggingContract.sol\":2898:2901  j++ */\n      dup1\n      dup1\n      0x01\n      add\n      swap2\n      pop\n      pop\n        /* \"task3/BeggingContract.sol\":2859:3324  for (uint256 j = i + 1; j<donersCount; j++) {... */\n      jump(tag_79)\n    tag_80:\n      pop\n        /* \"task3/BeggingContract.sol\":2840:2843  i++ */\n      dup1\n      dup1\n      0x01\n      add\n      swap2\n      pop\n      pop\n        /* \"task3/BeggingContract.sol\":2803:3334  for (uint256 i = 0; i < donersCount; i++) {... */\n      jump(tag_76)\n    tag_77:\n      pop\n        /* \"task3/BeggingContract.sol\":3352:3365  uint256 limit */\n      0x00\n        /* \"task3/BeggingContract.sol\":3382:3383  3 */\n      0x03\n        /* \"task3/BeggingContract.sol\":3368:3379  donersCount */\n      dup5\n        /* \"task3/BeggingContract.sol\":3368:3383  donersCount < 3 */\n      lt\n        /* \"task3/BeggingContract.sol\":3368:3401  donersCount < 3 ? donersCount : 3 */\n      tag_105\n      jumpi\n        /* \"task3/BeggingContract.sol\":3400:3401  3 */\n      0x03\n        /* \"task3/BeggingContract.sol\":3368:3401  donersCount < 3 ? donersCount : 3 */\n      jump(tag_106)\n    tag_105:\n        /* \"task3/BeggingContract.sol\":3386:3397  donersCount */\n      dup4\n        /* \"task3/BeggingContract.sol\":3368:3401  donersCount < 3 ? donersCount : 3 */\n    tag_106:\n        /* \"task3/BeggingContract.sol\":3352:3401  uint256 limit = donersCount < 3 ? donersCount : 3 */\n      swap1\n      pop\n        /* \"task3/BeggingContract.sol\":3416:3425  uint256 i */\n      0x00\n        /* \"task3/BeggingContract.sol\":3428:3429  0 */\n      0x00\n        /* \"task3/BeggingContract.sol\":3416:3429  uint256 i = 0 */\n      swap1\n      pop\n        /* \"task3/BeggingContract.sol\":3411:3498  for (uint256 i = 0; i < limit; i++) {... */\n    tag_107:\n        /* \"task3/BeggingContract.sol\":3435:3440  limit */\n      dup2\n        /* \"task3/BeggingContract.sol\":3431:3432  i */\n      dup2\n        /* \"task3/BeggingContract.sol\":3431:3440  i < limit */\n      lt\n        /* \"task3/BeggingContract.sol\":3411:3498  for (uint256 i = 0; i < limit; i++) {... */\n      iszero\n      tag_108\n      jumpi\n        /* \"task3/BeggingContract.sol\":3475:3484  tempAddrs */\n      dup4\n        /* \"task3/BeggingContract.sol\":3485:3486  i */\n      dup2\n        /* \"task3/BeggingContract.sol\":3475:3487  tempAddrs[i] */\n      dup2\n      mload\n      dup2\n      lt\n      tag_110\n      jumpi\n      tag_111\n      tag_67\n      jump\t// in\n    tag_111:\n    tag_110:\n      0x20\n      mul\n      0x20\n      add\n      add\n      mload\n        /* \"task3/BeggingContract.sol\":3461:3469  topThree */\n      dup7\n        /* \"task3/BeggingContract.sol\":3470:3471  i */\n      dup3\n        /* \"task3/BeggingContract.sol\":3461:3472  topThree[i] */\n      dup2\n      mload\n      dup2\n      lt\n      tag_112\n      jumpi\n      tag_113\n      tag_67\n      jump\t// in\n    tag_113:\n    tag_112:\n      0x20\n      mul\n      0x20\n      add\n      add\n        /* \"task3/BeggingContract.sol\":3461:3487  topThree[i] = tempAddrs[i] */\n      swap1\n      0xffffffffffffffffffffffffffffffffffffffff\n      and\n      swap1\n      dup2\n      0xffffffffffffffffffffffffffffffffffffffff\n      and\n      dup2\n      mstore\n      pop\n      pop\n        /* \"task3/BeggingContract.sol\":3442:3445  i++ */\n      dup1\n      dup1\n      0x01\n      add\n      swap2\n      pop\n      pop\n        /* \"task3/BeggingContract.sol\":3411:3498  for (uint256 i = 0; i < limit; i++) {... */\n      jump(tag_107)\n    tag_108:\n      pop\n        /* \"task3/BeggingContract.sol\":3515:3523  topThree */\n      dup5\n        /* \"task3/BeggingContract.sol\":3508:3523  return topThree */\n      swap6\n      pop\n      pop\n      pop\n      pop\n      pop\n      pop\n        /* \"task3/BeggingContract.sol\":2251:3530  function getTopThreeDonateAddr() public view returns(address[] memory) {... */\n    tag_50:\n      swap1\n      jump\t// out\n        /* \"task3/BeggingContract.sol\":1959:2157  function getDonation(address donateAddr) public view returns(uint256){... */\n    tag_20:\n        /* \"task3/BeggingContract.sol\":2020:2027  uint256 */\n      0x00\n        /* \"task3/BeggingContract.sol\":2068:2069  0 */\n      0x00\n        /* \"task3/BeggingContract.sol\":2046:2070  donateAddr != address(0) */\n      0xffffffffffffffffffffffffffffffffffffffff\n      and\n        /* \"task3/BeggingContract.sol\":2046:2056  donateAddr */\n      dup3\n        /* \"task3/BeggingContract.sol\":2046:2070  donateAddr != address(0) */\n      0xffffffffffffffffffffffffffffffffffffffff\n      and\n      sub\n        /* \"task3/BeggingContract.sol\":2038:2108  require(donateAddr != address(0), \"query address cannot be address 0\") */\n      tag_115\n      jumpi\n      mload(0x40)\n      0x08c379a000000000000000000000000000000000000000000000000000000000\n      dup2\n      mstore\n      0x04\n      add\n      tag_116\n      swap1\n      tag_117\n      jump\t// in\n    tag_116:\n      mload(0x40)\n      dup1\n      swap2\n      sub\n      swap1\n      revert\n    tag_115:\n        /* \"task3/BeggingContract.sol\":2125:2138  donateAmounts */\n      0x00\n        /* \"task3/BeggingContract.sol\":2125:2150  donateAmounts[donateAddr] */\n      0x00\n        /* \"task3/BeggingContract.sol\":2139:2149  donateAddr */\n      dup4\n        /* \"task3/BeggingContract.sol\":2125:2150  donateAmounts[donateAddr] */\n      0xffffffffffffffffffffffffffffffffffffffff\n      and\n      0xffffffffffffffffffffffffffffffffffffffff\n      and\n      dup2\n      mstore\n      0x20\n      add\n      swap1\n      dup2\n      mstore\n      0x20\n      add\n      0x00\n      keccak256\n      sload\n        /* \"task3/BeggingContract.sol\":2118:2150  return donateAmounts[donateAddr] */\n      swap1\n      pop\n        /* \"task3/BeggingContract.sol\":1959:2157  function getDonation(address donateAddr) public view returns(uint256){... */\n      swap2\n      swap1\n      pop\n      jump\t// out\n        /* \"task3/BeggingContract.sol\":3580:3744  function isDonateTime() public view returns(uint256) {... */\n    tag_25:\n        /* \"task3/BeggingContract.sol\":3624:3631  uint256 */\n      0x00\n        /* \"task3/BeggingContract.sol\":3672:3684  uint256 time */\n      0x00\n        /* \"task3/BeggingContract.sol\":3714:3716  24 */\n      0x18\n        /* \"task3/BeggingContract.sol\":3706:3710  3600 */\n      0x0e10\n        /* \"task3/BeggingContract.sol\":3688:3703  block.timestamp */\n      timestamp\n        /* \"task3/BeggingContract.sol\":3688:3710  block.timestamp / 3600 */\n      tag_119\n      swap2\n      swap1\n      tag_120\n      jump\t// in\n    tag_119:\n        /* \"task3/BeggingContract.sol\":3687:3716  (block.timestamp / 3600) % 24 */\n      tag_121\n      swap2\n      swap1\n      tag_122\n      jump\t// in\n    tag_121:\n        /* \"task3/BeggingContract.sol\":3672:3716  uint256 time = (block.timestamp / 3600) % 24 */\n      swap1\n      pop\n        /* \"task3/BeggingContract.sol\":3733:3737  time */\n      dup1\n        /* \"task3/BeggingContract.sol\":3726:3737  return time */\n      swap2\n      pop\n      pop\n        /* \"task3/BeggingContract.sol\":3580:3744  function isDonateTime() public view returns(uint256) {... */\n      swap1\n      jump\t// out\n        /* \"task3/BeggingContract.sol\":211:231  address public owner */\n    tag_29:\n      0x01\n      0x00\n      swap1\n      sload\n      swap1\n      0x0100\n      exp\n      swap1\n      div\n      0xffffffffffffffffffffffffffffffffffffffff\n      and\n      dup2\n      jump\t// out\n        /* \"task3/BeggingContract.sol\":156:205  mapping (address => uint256) public donateAmounts */\n    tag_35:\n      mstore(0x20, 0x00)\n      dup1\n      0x00\n      mstore\n      keccak256(0x00, 0x40)\n      0x00\n      swap2\n      pop\n      swap1\n      pop\n      sload\n      dup2\n      jump\t// out\n        /* \"task3/BeggingContract.sol\":237:260  address[] public doners */\n    tag_41:\n      0x02\n      dup2\n      dup2\n      sload\n      dup2\n      lt\n      tag_123\n      jumpi\n      0x00\n      dup1\n      revert\n    tag_123:\n      swap1\n      0x00\n      mstore\n      keccak256(0x00, 0x20)\n      add\n      0x00\n      swap2\n      pop\n      sload\n      swap1\n      0x0100\n      exp\n      swap1\n      div\n      0xffffffffffffffffffffffffffffffffffffffff\n      and\n      dup2\n      jump\t// out\n        /* \"task3/BeggingContract.sol\":1599:1913  function withdrawn() public onlyOwner {... */\n    tag_45:\n        /* \"task3/BeggingContract.sol\":456:461  owner */\n      0x01\n      0x00\n      swap1\n      sload\n      swap1\n      0x0100\n      exp\n      swap1\n      div\n      0xffffffffffffffffffffffffffffffffffffffff\n      and\n        /* \"task3/BeggingContract.sol\":442:461  msg.sender == owner */\n      0xffffffffffffffffffffffffffffffffffffffff\n      and\n        /* \"task3/BeggingContract.sol\":442:452  msg.sender */\n      caller\n        /* \"task3/BeggingContract.sol\":442:461  msg.sender == owner */\n      0xffffffffffffffffffffffffffffffffffffffff\n      and\n      eq\n        /* \"task3/BeggingContract.sol\":434:490  require(msg.sender == owner, \"only owner can withdrawn\") */\n      tag_126\n      jumpi\n      mload(0x40)\n      0x08c379a000000000000000000000000000000000000000000000000000000000\n      dup2\n      mstore\n      0x04\n      add\n      tag_127\n      swap1\n      tag_128\n      jump\t// in\n    tag_127:\n      mload(0x40)\n      dup1\n      swap2\n      sub\n      swap1\n      revert\n    tag_126:\n        /* \"task3/BeggingContract.sol\":1647:1659  uint balance */\n      0x00\n        /* \"task3/BeggingContract.sol\":1662:1683  address(this).balance */\n      selfbalance\n        /* \"task3/BeggingContract.sol\":1647:1683  uint balance = address(this).balance */\n      swap1\n      pop\n        /* \"task3/BeggingContract.sol\":1707:1708  0 */\n      0x00\n        /* \"task3/BeggingContract.sol\":1697:1704  balance */\n      dup2\n        /* \"task3/BeggingContract.sol\":1697:1708  balance > 0 */\n      gt\n        /* \"task3/BeggingContract.sol\":1693:1842  if (balance > 0) {... */\n      iszero\n      tag_130\n      jumpi\n        /* \"task3/BeggingContract.sol\":1732:1742  msg.sender */\n      caller\n        /* \"task3/BeggingContract.sol\":1724:1752  payable(msg.sender).transfer */\n      0xffffffffffffffffffffffffffffffffffffffff\n      and\n        /* \"task3/BeggingContract.sol\":1724:1761  payable(msg.sender).transfer(balance) */\n      0x08fc\n        /* \"task3/BeggingContract.sol\":1753:1760  balance */\n      dup3\n        /* \"task3/BeggingContract.sol\":1724:1761  payable(msg.sender).transfer(balance) */\n      swap1\n      dup2\n      iszero\n      mul\n      swap1\n      mload(0x40)\n      0x00\n      mload(0x40)\n      dup1\n      dup4\n      sub\n      dup2\n      dup6\n      dup9\n      dup9\n      call\n      swap4\n      pop\n      pop\n      pop\n      pop\n      iszero\n      dup1\n      iszero\n      tag_132\n      jumpi\n      returndatacopy(0x00, 0x00, returndatasize)\n      revert(0x00, returndatasize)\n    tag_132:\n      pop\n        /* \"task3/BeggingContract.sol\":1780:1831  Withdrawn(msg.sender, balance, \"withdrawn success\") */\n      0xb80d46a1fcb96f3896e038df66c1242504a8e49effecd0bf2473574707ca0121\n        /* \"task3/BeggingContract.sol\":1790:1800  msg.sender */\n      caller\n        /* \"task3/BeggingContract.sol\":1802:1809  balance */\n      dup3\n        /* \"task3/BeggingContract.sol\":1780:1831  Withdrawn(msg.sender, balance, \"withdrawn success\") */\n      mload(0x40)\n      tag_133\n      swap3\n      swap2\n      swap1\n      tag_134\n      jump\t// in\n    tag_133:\n      mload(0x40)\n      dup1\n      swap2\n      sub\n      swap1\n      log1\n        /* \"task3/BeggingContract.sol\":1693:1842  if (balance > 0) {... */\n    tag_130:\n        /* \"task3/BeggingContract.sol\":1856:1906  Withdrawn(msg.sender, balance, \"withdrawn failed\") */\n      0xb80d46a1fcb96f3896e038df66c1242504a8e49effecd0bf2473574707ca0121\n        /* \"task3/BeggingContract.sol\":1866:1876  msg.sender */\n      caller\n        /* \"task3/BeggingContract.sol\":1878:1885  balance */\n      dup3\n        /* \"task3/BeggingContract.sol\":1856:1906  Withdrawn(msg.sender, balance, \"withdrawn failed\") */\n      mload(0x40)\n      tag_135\n      swap3\n      swap2\n      swap1\n      tag_136\n      jump\t// in\n    tag_135:\n      mload(0x40)\n      dup1\n      swap2\n      sub\n      swap1\n      log1\n        /* \"task3/BeggingContract.sol\":1637:1913  {... */\n      pop\n        /* \"task3/BeggingContract.sol\":1599:1913  function withdrawn() public onlyOwner {... */\n      jump\t// out\n        /* \"task3/BeggingContract.sol\":891:1526  function donate() public limitTime payable returns(bool) {... */\n    tag_47:\n        /* \"task3/BeggingContract.sol\":942:946  bool */\n      0x00\n        /* \"task3/BeggingContract.sol\":630:631  8 */\n      0x08\n        /* \"task3/BeggingContract.sol\":612:626  isDonateTime() */\n      tag_138\n        /* \"task3/BeggingContract.sol\":612:624  isDonateTime */\n      tag_25\n        /* \"task3/BeggingContract.sol\":612:626  isDonateTime() */\n      jump\t// in\n    tag_138:\n        /* \"task3/BeggingContract.sol\":612:631  isDonateTime() >= 8 */\n      lt\n      iszero\n        /* \"task3/BeggingContract.sol\":612:654  isDonateTime() >= 8 && isDonateTime() <=12 */\n      dup1\n      iszero\n      tag_139\n      jumpi\n      pop\n        /* \"task3/BeggingContract.sol\":652:654  12 */\n      0x0c\n        /* \"task3/BeggingContract.sol\":635:649  isDonateTime() */\n      tag_140\n        /* \"task3/BeggingContract.sol\":635:647  isDonateTime */\n      tag_25\n        /* \"task3/BeggingContract.sol\":635:649  isDonateTime() */\n      jump\t// in\n    tag_140:\n        /* \"task3/BeggingContract.sol\":635:654  isDonateTime() <=12 */\n      gt\n      iszero\n        /* \"task3/BeggingContract.sol\":612:654  isDonateTime() >= 8 && isDonateTime() <=12 */\n    tag_139:\n        /* \"task3/BeggingContract.sol\":603:678  require((isDonateTime() >= 8 && isDonateTime() <=12),\"donate time exceed\" ) */\n      tag_141\n      jumpi\n      mload(0x40)\n      0x08c379a000000000000000000000000000000000000000000000000000000000\n      dup2\n      mstore\n      0x04\n      add\n      tag_142\n      swap1\n      tag_143\n      jump\t// in\n    tag_142:\n      mload(0x40)\n      dup1\n      swap2\n      sub\n      swap1\n      revert\n    tag_141:\n        /* \"task3/BeggingContract.sol\":977:978  0 */\n      0x00\n        /* \"task3/BeggingContract.sol\":966:975  msg.value */\n      callvalue\n        /* \"task3/BeggingContract.sol\":966:978  msg.value >0 */\n      gt\n        /* \"task3/BeggingContract.sol\":958:1018  require(msg.value >0, \"donate amount musst greather than 0\") */\n      tag_145\n      jumpi\n      mload(0x40)\n      0x08c379a000000000000000000000000000000000000000000000000000000000\n      dup2\n      mstore\n      0x04\n      add\n      tag_146\n      swap1\n      tag_147\n      jump\t// in\n    tag_146:\n      mload(0x40)\n      dup1\n      swap2\n      sub\n      swap1\n      revert\n    tag_145:\n        /* \"task3/BeggingContract.sol\":1061:1062  0 */\n      0x00\n        /* \"task3/BeggingContract.sol\":1032:1045  donateAmounts */\n      0x00\n        /* \"task3/BeggingContract.sol\":1032:1057  donateAmounts[msg.sender] */\n      0x00\n        /* \"task3/BeggingContract.sol\":1046:1056  msg.sender */\n      caller\n        /* \"task3/BeggingContract.sol\":1032:1057  donateAmounts[msg.sender] */\n      0xffffffffffffffffffffffffffffffffffffffff\n      and\n      0xffffffffffffffffffffffffffffffffffffffff\n      and\n      dup2\n      mstore\n      0x20\n      add\n      swap1\n      dup2\n      mstore\n      0x20\n      add\n      0x00\n      keccak256\n      sload\n        /* \"task3/BeggingContract.sol\":1032:1062  donateAmounts[msg.sender] == 0 */\n      sub\n        /* \"task3/BeggingContract.sol\":1028:1199  if (donateAmounts[msg.sender] == 0) {... */\n      tag_148\n      jumpi\n        /* \"task3/BeggingContract.sol\":1165:1171  doners */\n      0x02\n        /* \"task3/BeggingContract.sol\":1177:1187  msg.sender */\n      caller\n        /* \"task3/BeggingContract.sol\":1165:1188  doners.push(msg.sender) */\n      swap1\n      dup1\n      0x01\n      dup2\n      sload\n      add\n      dup1\n      dup3\n      sstore\n      dup1\n      swap2\n      pop\n      pop\n      0x01\n      swap1\n      sub\n      swap1\n      0x00\n      mstore\n      keccak256(0x00, 0x20)\n      add\n      0x00\n      swap1\n      swap2\n      swap1\n      swap2\n      swap1\n      swap2\n      0x0100\n      exp\n      dup2\n      sload\n      dup2\n      0xffffffffffffffffffffffffffffffffffffffff\n      mul\n      not\n      and\n      swap1\n      dup4\n      0xffffffffffffffffffffffffffffffffffffffff\n      and\n      mul\n      or\n      swap1\n      sstore\n      pop\n        /* \"task3/BeggingContract.sol\":1028:1199  if (donateAmounts[msg.sender] == 0) {... */\n    tag_148:\n        /* \"task3/BeggingContract.sol\":1237:1246  msg.value */\n      callvalue\n        /* \"task3/BeggingContract.sol\":1208:1221  donateAmounts */\n      0x00\n        /* \"task3/BeggingContract.sol\":1208:1233  donateAmounts[msg.sender] */\n      0x00\n        /* \"task3/BeggingContract.sol\":1222:1232  msg.sender */\n      caller\n        /* \"task3/BeggingContract.sol\":1208:1233  donateAmounts[msg.sender] */\n      0xffffffffffffffffffffffffffffffffffffffff\n      and\n      0xffffffffffffffffffffffffffffffffffffffff\n      and\n      dup2\n      mstore\n      0x20\n      add\n      swap1\n      dup2\n      mstore\n      0x20\n      add\n      0x00\n      keccak256\n      0x00\n        /* \"task3/BeggingContract.sol\":1208:1246  donateAmounts[msg.sender] += msg.value */\n      dup3\n      dup3\n      sload\n      tag_150\n      swap2\n      swap1\n      tag_83\n      jump\t// in\n    tag_150:\n      swap3\n      pop\n      pop\n      dup2\n      swap1\n      sstore\n      pop\n        /* \"task3/BeggingContract.sol\":1257:1269  bool success */\n      0x00\n        /* \"task3/BeggingContract.sol\":1282:1286  this */\n      address\n        /* \"task3/BeggingContract.sol\":1274:1292  address(this).call */\n      0xffffffffffffffffffffffffffffffffffffffff\n      and\n        /* \"task3/BeggingContract.sol\":1300:1309  msg.value */\n      callvalue\n        /* \"task3/BeggingContract.sol\":1274:1314  address(this).call{value: msg.value}(\"\") */\n      mload(0x40)\n      tag_151\n      swap1\n      tag_152\n      jump\t// in\n    tag_151:\n      0x00\n      mload(0x40)\n      dup1\n      dup4\n      sub\n      dup2\n      dup6\n      dup8\n      gas\n      call\n      swap3\n      pop\n      pop\n      pop\n      returndatasize\n      dup1\n      0x00\n      dup2\n      eq\n      tag_155\n      jumpi\n      mload(0x40)\n      swap2\n      pop\n      and(add(returndatasize, 0x3f), not(0x1f))\n      dup3\n      add\n      0x40\n      mstore\n      returndatasize\n      dup3\n      mstore\n      returndatasize\n      0x00\n      0x20\n      dup5\n      add\n      returndatacopy\n      jump(tag_154)\n    tag_155:\n      0x60\n      swap2\n      pop\n    tag_154:\n      pop\n        /* \"task3/BeggingContract.sol\":1256:1314  (bool success,) = address(this).call{value: msg.value}(\"\") */\n      pop\n      swap1\n      pop\n        /* \"task3/BeggingContract.sol\":1329:1336  success */\n      dup1\n        /* \"task3/BeggingContract.sol\":1324:1444  if (!success) {... */\n      tag_156\n      jumpi\n        /* \"task3/BeggingContract.sol\":1357:1407  CallFailed(msg.sender, msg.value, \"donate failed\") */\n      0x5208fccd834797cd8b53844171c3fd9307640328101d77591eb870f8eadecac0\n        /* \"task3/BeggingContract.sol\":1368:1378  msg.sender */\n      caller\n        /* \"task3/BeggingContract.sol\":1380:1389  msg.value */\n      callvalue\n        /* \"task3/BeggingContract.sol\":1357:1407  CallFailed(msg.sender, msg.value, \"donate failed\") */\n      mload(0x40)\n      tag_157\n      swap3\n      swap2\n      swap1\n      tag_158\n      jump\t// in\n    tag_157:\n      mload(0x40)\n      dup1\n      swap2\n      sub\n      swap1\n      log1\n        /* \"task3/BeggingContract.sol\":1428:1433  false */\n      0x00\n        /* \"task3/BeggingContract.sol\":1421:1433  return false */\n      swap2\n      pop\n      pop\n      jump(tag_144)\n        /* \"task3/BeggingContract.sol\":1324:1444  if (!success) {... */\n    tag_156:\n        /* \"task3/BeggingContract.sol\":1467:1498  Donation(msg.sender, msg.value) */\n      0x5d8bc849764969eb1bcc6d0a2f55999d0167c1ccec240a4f39cf664ca9c4148e\n        /* \"task3/BeggingContract.sol\":1476:1486  msg.sender */\n      caller\n        /* \"task3/BeggingContract.sol\":1488:1497  msg.value */\n      callvalue\n        /* \"task3/BeggingContract.sol\":1467:1498  Donation(msg.sender, msg.value) */\n      mload(0x40)\n      tag_159\n      swap3\n      swap2\n      swap1\n      tag_160\n      jump\t// in\n    tag_159:\n      mload(0x40)\n      dup1\n      swap2\n      sub\n      swap1\n      log1\n        /* \"task3/BeggingContract.sol\":1515:1519  true */\n      0x01\n        /* \"task3/BeggingContract.sol\":1508:1519  return true */\n      swap2\n      pop\n      pop\n        /* \"task3/BeggingContract.sol\":688:689  _ */\n    tag_144:\n        /* \"task3/BeggingContract.sol\":891:1526  function donate() public limitTime payable returns(bool) {... */\n      swap1\n      jump\t// out\n        /* \"#utility.yul\":7:121   */\n    tag_161:\n        /* \"#utility.yul\":74:80   */\n      0x00\n        /* \"#utility.yul\":108:113   */\n      dup2\n        /* \"#utility.yul\":102:114   */\n      mload\n        /* \"#utility.yul\":92:114   */\n      swap1\n      pop\n        /* \"#utility.yul\":7:121   */\n      swap2\n      swap1\n      pop\n      jump\t// out\n        /* \"#utility.yul\":127:311   */\n    tag_162:\n        /* \"#utility.yul\":226:237   */\n      0x00\n        /* \"#utility.yul\":260:266   */\n      dup3\n        /* \"#utility.yul\":255:258   */\n      dup3\n        /* \"#utility.yul\":248:267   */\n      mstore\n        /* \"#utility.yul\":300:304   */\n      0x20\n        /* \"#utility.yul\":295:298   */\n      dup3\n        /* \"#utility.yul\":291:305   */\n      add\n        /* \"#utility.yul\":276:305   */\n      swap1\n      pop\n        /* \"#utility.yul\":127:311   */\n      swap3\n      swap2\n      pop\n      pop\n      jump\t// out\n        /* \"#utility.yul\":317:449   */\n    tag_163:\n        /* \"#utility.yul\":384:388   */\n      0x00\n        /* \"#utility.yul\":407:410   */\n      dup2\n        /* \"#utility.yul\":399:410   */\n      swap1\n      pop\n        /* \"#utility.yul\":437:441   */\n      0x20\n        /* \"#utility.yul\":432:435   */\n      dup3\n        /* \"#utility.yul\":428:442   */\n      add\n        /* \"#utility.yul\":420:442   */\n      swap1\n      pop\n        /* \"#utility.yul\":317:449   */\n      swap2\n      swap1\n      pop\n      jump\t// out\n        /* \"#utility.yul\":455:581   */\n    tag_164:\n        /* \"#utility.yul\":492:499   */\n      0x00\n        /* \"#utility.yul\":532:574   */\n      0xffffffffffffffffffffffffffffffffffffffff\n        /* \"#utility.yul\":525:530   */\n      dup3\n        /* \"#utility.yul\":521:575   */\n      and\n        /* \"#utility.yul\":510:575   */\n      swap1\n      pop\n        /* \"#utility.yul\":455:581   */\n      swap2\n      swap1\n      pop\n      jump\t// out\n        /* \"#utility.yul\":587:683   */\n    tag_165:\n        /* \"#utility.yul\":624:631   */\n      0x00\n        /* \"#utility.yul\":653:677   */\n      tag_208\n        /* \"#utility.yul\":671:676   */\n      dup3\n        /* \"#utility.yul\":653:677   */\n      tag_164\n      jump\t// in\n    tag_208:\n        /* \"#utility.yul\":642:677   */\n      swap1\n      pop\n        /* \"#utility.yul\":587:683   */\n      swap2\n      swap1\n      pop\n      jump\t// out\n        /* \"#utility.yul\":689:797   */\n    tag_166:\n        /* \"#utility.yul\":766:790   */\n      tag_210\n        /* \"#utility.yul\":784:789   */\n      dup2\n        /* \"#utility.yul\":766:790   */\n      tag_165\n      jump\t// in\n    tag_210:\n        /* \"#utility.yul\":761:764   */\n      dup3\n        /* \"#utility.yul\":754:791   */\n      mstore\n        /* \"#utility.yul\":689:797   */\n      pop\n      pop\n      jump\t// out\n        /* \"#utility.yul\":803:982   */\n    tag_167:\n        /* \"#utility.yul\":872:882   */\n      0x00\n        /* \"#utility.yul\":893:939   */\n      tag_212\n        /* \"#utility.yul\":935:938   */\n      dup4\n        /* \"#utility.yul\":927:933   */\n      dup4\n        /* \"#utility.yul\":893:939   */\n      tag_166\n      jump\t// in\n    tag_212:\n        /* \"#utility.yul\":971:975   */\n      0x20\n        /* \"#utility.yul\":966:969   */\n      dup4\n        /* \"#utility.yul\":962:976   */\n      add\n        /* \"#utility.yul\":948:976   */\n      swap1\n      pop\n        /* \"#utility.yul\":803:982   */\n      swap3\n      swap2\n      pop\n      pop\n      jump\t// out\n        /* \"#utility.yul\":988:1101   */\n    tag_168:\n        /* \"#utility.yul\":1058:1062   */\n      0x00\n        /* \"#utility.yul\":1090:1094   */\n      0x20\n        /* \"#utility.yul\":1085:1088   */\n      dup3\n        /* \"#utility.yul\":1081:1095   */\n      add\n        /* \"#utility.yul\":1073:1095   */\n      swap1\n      pop\n        /* \"#utility.yul\":988:1101   */\n      swap2\n      swap1\n      pop\n      jump\t// out\n        /* \"#utility.yul\":1137:1869   */\n    tag_169:\n        /* \"#utility.yul\":1256:1259   */\n      0x00\n        /* \"#utility.yul\":1285:1339   */\n      tag_215\n        /* \"#utility.yul\":1333:1338   */\n      dup3\n        /* \"#utility.yul\":1285:1339   */\n      tag_161\n      jump\t// in\n    tag_215:\n        /* \"#utility.yul\":1355:1441   */\n      tag_216\n        /* \"#utility.yul\":1434:1440   */\n      dup2\n        /* \"#utility.yul\":1429:1432   */\n      dup6\n        /* \"#utility.yul\":1355:1441   */\n      tag_162\n      jump\t// in\n    tag_216:\n        /* \"#utility.yul\":1348:1441   */\n      swap4\n      pop\n        /* \"#utility.yul\":1465:1521   */\n      tag_217\n        /* \"#utility.yul\":1515:1520   */\n      dup4\n        /* \"#utility.yul\":1465:1521   */\n      tag_163\n      jump\t// in\n    tag_217:\n        /* \"#utility.yul\":1544:1551   */\n      dup1\n        /* \"#utility.yul\":1575:1576   */\n      0x00\n        /* \"#utility.yul\":1560:1844   */\n    tag_218:\n        /* \"#utility.yul\":1585:1591   */\n      dup4\n        /* \"#utility.yul\":1582:1583   */\n      dup2\n        /* \"#utility.yul\":1579:1592   */\n      lt\n        /* \"#utility.yul\":1560:1844   */\n      iszero\n      tag_220\n      jumpi\n        /* \"#utility.yul\":1661:1667   */\n      dup2\n        /* \"#utility.yul\":1655:1668   */\n      mload\n        /* \"#utility.yul\":1688:1751   */\n      tag_221\n        /* \"#utility.yul\":1747:1750   */\n      dup9\n        /* \"#utility.yul\":1732:1745   */\n      dup3\n        /* \"#utility.yul\":1688:1751   */\n      tag_167\n      jump\t// in\n    tag_221:\n        /* \"#utility.yul\":1681:1751   */\n      swap8\n      pop\n        /* \"#utility.yul\":1774:1834   */\n      tag_222\n        /* \"#utility.yul\":1827:1833   */\n      dup4\n        /* \"#utility.yul\":1774:1834   */\n      tag_168\n      jump\t// in\n    tag_222:\n        /* \"#utility.yul\":1764:1834   */\n      swap3\n      pop\n        /* \"#utility.yul\":1620:1844   */\n      pop\n        /* \"#utility.yul\":1607:1608   */\n      0x01\n        /* \"#utility.yul\":1604:1605   */\n      dup2\n        /* \"#utility.yul\":1600:1609   */\n      add\n        /* \"#utility.yul\":1595:1609   */\n      swap1\n      pop\n        /* \"#utility.yul\":1560:1844   */\n      jump(tag_218)\n    tag_220:\n        /* \"#utility.yul\":1564:1578   */\n      pop\n        /* \"#utility.yul\":1860:1863   */\n      dup6\n        /* \"#utility.yul\":1853:1863   */\n      swap4\n      pop\n        /* \"#utility.yul\":1261:1869   */\n      pop\n      pop\n      pop\n        /* \"#utility.yul\":1137:1869   */\n      swap3\n      swap2\n      pop\n      pop\n      jump\t// out\n        /* \"#utility.yul\":1875:2248   */\n    tag_15:\n        /* \"#utility.yul\":2018:2022   */\n      0x00\n        /* \"#utility.yul\":2056:2058   */\n      0x20\n        /* \"#utility.yul\":2045:2054   */\n      dup3\n        /* \"#utility.yul\":2041:2059   */\n      add\n        /* \"#utility.yul\":2033:2059   */\n      swap1\n      pop\n        /* \"#utility.yul\":2105:2114   */\n      dup2\n        /* \"#utility.yul\":2099:2103   */\n      dup2\n        /* \"#utility.yul\":2095:2115   */\n      sub\n        /* \"#utility.yul\":2091:2092   */\n      0x00\n        /* \"#utility.yul\":2080:2089   */\n      dup4\n        /* \"#utility.yul\":2076:2093   */\n      add\n        /* \"#utility.yul\":2069:2116   */\n      mstore\n        /* \"#utility.yul\":2133:2241   */\n      tag_224\n        /* \"#utility.yul\":2236:2240   */\n      dup2\n        /* \"#utility.yul\":2227:2233   */\n      dup5\n        /* \"#utility.yul\":2133:2241   */\n      tag_169\n      jump\t// in\n    tag_224:\n        /* \"#utility.yul\":2125:2241   */\n      swap1\n      pop\n        /* \"#utility.yul\":1875:2248   */\n      swap3\n      swap2\n      pop\n      pop\n      jump\t// out\n        /* \"#utility.yul\":2335:2452   */\n    tag_171:\n        /* \"#utility.yul\":2444:2445   */\n      0x00\n        /* \"#utility.yul\":2441:2442   */\n      0x00\n        /* \"#utility.yul\":2434:2446   */\n      revert\n        /* \"#utility.yul\":2581:2703   */\n    tag_173:\n        /* \"#utility.yul\":2654:2678   */\n      tag_229\n        /* \"#utility.yul\":2672:2677   */\n      dup2\n        /* \"#utility.yul\":2654:2678   */\n      tag_165\n      jump\t// in\n    tag_229:\n        /* \"#utility.yul\":2647:2652   */\n      dup2\n        /* \"#utility.yul\":2644:2679   */\n      eq\n        /* \"#utility.yul\":2634:2697   */\n      tag_230\n      jumpi\n        /* \"#utility.yul\":2693:2694   */\n      0x00\n        /* \"#utility.yul\":2690:2691   */\n      0x00\n        /* \"#utility.yul\":2683:2695   */\n      revert\n        /* \"#utility.yul\":2634:2697   */\n    tag_230:\n        /* \"#utility.yul\":2581:2703   */\n      pop\n      jump\t// out\n        /* \"#utility.yul\":2709:2848   */\n    tag_174:\n        /* \"#utility.yul\":2755:2760   */\n      0x00\n        /* \"#utility.yul\":2793:2799   */\n      dup2\n        /* \"#utility.yul\":2780:2800   */\n      calldataload\n        /* \"#utility.yul\":2771:2800   */\n      swap1\n      pop\n        /* \"#utility.yul\":2809:2842   */\n      tag_232\n        /* \"#utility.yul\":2836:2841   */\n      dup2\n        /* \"#utility.yul\":2809:2842   */\n      tag_173\n      jump\t// in\n    tag_232:\n        /* \"#utility.yul\":2709:2848   */\n      swap3\n      swap2\n      pop\n      pop\n      jump\t// out\n        /* \"#utility.yul\":2854:3183   */\n    tag_19:\n        /* \"#utility.yul\":2913:2919   */\n      0x00\n        /* \"#utility.yul\":2962:2964   */\n      0x20\n        /* \"#utility.yul\":2950:2959   */\n      dup3\n        /* \"#utility.yul\":2941:2948   */\n      dup5\n        /* \"#utility.yul\":2937:2960   */\n      sub\n        /* \"#utility.yul\":2933:2965   */\n      slt\n        /* \"#utility.yul\":2930:3049   */\n      iszero\n      tag_234\n      jumpi\n        /* \"#utility.yul\":2968:3047   */\n      tag_235\n      tag_171\n      jump\t// in\n    tag_235:\n        /* \"#utility.yul\":2930:3049   */\n    tag_234:\n        /* \"#utility.yul\":3088:3089   */\n      0x00\n        /* \"#utility.yul\":3113:3166   */\n      tag_236\n        /* \"#utility.yul\":3158:3165   */\n      dup5\n        /* \"#utility.yul\":3149:3155   */\n      dup3\n        /* \"#utility.yul\":3138:3147   */\n      dup6\n        /* \"#utility.yul\":3134:3156   */\n      add\n        /* \"#utility.yul\":3113:3166   */\n      tag_174\n      jump\t// in\n    tag_236:\n        /* \"#utility.yul\":3103:3166   */\n      swap2\n      pop\n        /* \"#utility.yul\":3059:3176   */\n      pop\n        /* \"#utility.yul\":2854:3183   */\n      swap3\n      swap2\n      pop\n      pop\n      jump\t// out\n        /* \"#utility.yul\":3189:3266   */\n    tag_175:\n        /* \"#utility.yul\":3226:3233   */\n      0x00\n        /* \"#utility.yul\":3255:3260   */\n      dup2\n        /* \"#utility.yul\":3244:3260   */\n      swap1\n      pop\n        /* \"#utility.yul\":3189:3266   */\n      swap2\n      swap1\n      pop\n      jump\t// out\n        /* \"#utility.yul\":3272:3390   */\n    tag_176:\n        /* \"#utility.yul\":3359:3383   */\n      tag_239\n        /* \"#utility.yul\":3377:3382   */\n      dup2\n        /* \"#utility.yul\":3359:3383   */\n      tag_175\n      jump\t// in\n    tag_239:\n        /* \"#utility.yul\":3354:3357   */\n      dup3\n        /* \"#utility.yul\":3347:3384   */\n      mstore\n        /* \"#utility.yul\":3272:3390   */\n      pop\n      pop\n      jump\t// out\n        /* \"#utility.yul\":3396:3618   */\n    tag_22:\n        /* \"#utility.yul\":3489:3493   */\n      0x00\n        /* \"#utility.yul\":3527:3529   */\n      0x20\n        /* \"#utility.yul\":3516:3525   */\n      dup3\n        /* \"#utility.yul\":3512:3530   */\n      add\n        /* \"#utility.yul\":3504:3530   */\n      swap1\n      pop\n        /* \"#utility.yul\":3540:3611   */\n      tag_241\n        /* \"#utility.yul\":3608:3609   */\n      0x00\n        /* \"#utility.yul\":3597:3606   */\n      dup4\n        /* \"#utility.yul\":3593:3610   */\n      add\n        /* \"#utility.yul\":3584:3590   */\n      dup5\n        /* \"#utility.yul\":3540:3611   */\n      tag_176\n      jump\t// in\n    tag_241:\n        /* \"#utility.yul\":3396:3618   */\n      swap3\n      swap2\n      pop\n      pop\n      jump\t// out\n        /* \"#utility.yul\":3624:3742   */\n    tag_177:\n        /* \"#utility.yul\":3711:3735   */\n      tag_243\n        /* \"#utility.yul\":3729:3734   */\n      dup2\n        /* \"#utility.yul\":3711:3735   */\n      tag_165\n      jump\t// in\n    tag_243:\n        /* \"#utility.yul\":3706:3709   */\n      dup3\n        /* \"#utility.yul\":3699:3736   */\n      mstore\n        /* \"#utility.yul\":3624:3742   */\n      pop\n      pop\n      jump\t// out\n        /* \"#utility.yul\":3748:3970   */\n    tag_31:\n        /* \"#utility.yul\":3841:3845   */\n      0x00\n        /* \"#utility.yul\":3879:3881   */\n      0x20\n        /* \"#utility.yul\":3868:3877   */\n      dup3\n        /* \"#utility.yul\":3864:3882   */\n      add\n        /* \"#utility.yul\":3856:3882   */\n      swap1\n      pop\n        /* \"#utility.yul\":3892:3963   */\n      tag_245\n        /* \"#utility.yul\":3960:3961   */\n      0x00\n        /* \"#utility.yul\":3949:3958   */\n      dup4\n        /* \"#utility.yul\":3945:3962   */\n      add\n        /* \"#utility.yul\":3936:3942   */\n      dup5\n        /* \"#utility.yul\":3892:3963   */\n      tag_177\n      jump\t// in\n    tag_245:\n        /* \"#utility.yul\":3748:3970   */\n      swap3\n      swap2\n      pop\n      pop\n      jump\t// out\n        /* \"#utility.yul\":3976:4098   */\n    tag_178:\n        /* \"#utility.yul\":4049:4073   */\n      tag_247\n        /* \"#utility.yul\":4067:4072   */\n      dup2\n        /* \"#utility.yul\":4049:4073   */\n      tag_175\n      jump\t// in\n    tag_247:\n        /* \"#utility.yul\":4042:4047   */\n      dup2\n        /* \"#utility.yul\":4039:4074   */\n      eq\n        /* \"#utility.yul\":4029:4092   */\n      tag_248\n      jumpi\n        /* \"#utility.yul\":4088:4089   */\n      0x00\n        /* \"#utility.yul\":4085:4086   */\n      0x00\n        /* \"#utility.yul\":4078:4090   */\n      revert\n        /* \"#utility.yul\":4029:4092   */\n    tag_248:\n        /* \"#utility.yul\":3976:4098   */\n      pop\n      jump\t// out\n        /* \"#utility.yul\":4104:4243   */\n    tag_179:\n        /* \"#utility.yul\":4150:4155   */\n      0x00\n        /* \"#utility.yul\":4188:4194   */\n      dup2\n        /* \"#utility.yul\":4175:4195   */\n      calldataload\n        /* \"#utility.yul\":4166:4195   */\n      swap1\n      pop\n        /* \"#utility.yul\":4204:4237   */\n      tag_250\n        /* \"#utility.yul\":4231:4236   */\n      dup2\n        /* \"#utility.yul\":4204:4237   */\n      tag_178\n      jump\t// in\n    tag_250:\n        /* \"#utility.yul\":4104:4243   */\n      swap3\n      swap2\n      pop\n      pop\n      jump\t// out\n        /* \"#utility.yul\":4249:4578   */\n    tag_40:\n        /* \"#utility.yul\":4308:4314   */\n      0x00\n        /* \"#utility.yul\":4357:4359   */\n      0x20\n        /* \"#utility.yul\":4345:4354   */\n      dup3\n        /* \"#utility.yul\":4336:4343   */\n      dup5\n        /* \"#utility.yul\":4332:4355   */\n      sub\n        /* \"#utility.yul\":4328:4360   */\n      slt\n        /* \"#utility.yul\":4325:4444   */\n      iszero\n      tag_252\n      jumpi\n        /* \"#utility.yul\":4363:4442   */\n      tag_253\n      tag_171\n      jump\t// in\n    tag_253:\n        /* \"#utility.yul\":4325:4444   */\n    tag_252:\n        /* \"#utility.yul\":4483:4484   */\n      0x00\n        /* \"#utility.yul\":4508:4561   */\n      tag_254\n        /* \"#utility.yul\":4553:4560   */\n      dup5\n        /* \"#utility.yul\":4544:4550   */\n      dup3\n        /* \"#utility.yul\":4533:4542   */\n      dup6\n        /* \"#utility.yul\":4529:4551   */\n      add\n        /* \"#utility.yul\":4508:4561   */\n      tag_179\n      jump\t// in\n    tag_254:\n        /* \"#utility.yul\":4498:4561   */\n      swap2\n      pop\n        /* \"#utility.yul\":4454:4571   */\n      pop\n        /* \"#utility.yul\":4249:4578   */\n      swap3\n      swap2\n      pop\n      pop\n      jump\t// out\n        /* \"#utility.yul\":4584:4674   */\n    tag_180:\n        /* \"#utility.yul\":4618:4625   */\n      0x00\n        /* \"#utility.yul\":4661:4666   */\n      dup2\n        /* \"#utility.yul\":4654:4667   */\n      iszero\n        /* \"#utility.yul\":4647:4668   */\n      iszero\n        /* \"#utility.yul\":4636:4668   */\n      swap1\n      pop\n        /* \"#utility.yul\":4584:4674   */\n      swap2\n      swap1\n      pop\n      jump\t// out\n        /* \"#utility.yul\":4680:4789   */\n    tag_181:\n        /* \"#utility.yul\":4761:4782   */\n      tag_257\n        /* \"#utility.yul\":4776:4781   */\n      dup2\n        /* \"#utility.yul\":4761:4782   */\n      tag_180\n      jump\t// in\n    tag_257:\n        /* \"#utility.yul\":4756:4759   */\n      dup3\n        /* \"#utility.yul\":4749:4783   */\n      mstore\n        /* \"#utility.yul\":4680:4789   */\n      pop\n      pop\n      jump\t// out\n        /* \"#utility.yul\":4795:5005   */\n    tag_49:\n        /* \"#utility.yul\":4882:4886   */\n      0x00\n        /* \"#utility.yul\":4920:4922   */\n      0x20\n        /* \"#utility.yul\":4909:4918   */\n      dup3\n        /* \"#utility.yul\":4905:4923   */\n      add\n        /* \"#utility.yul\":4897:4923   */\n      swap1\n      pop\n        /* \"#utility.yul\":4933:4998   */\n      tag_259\n        /* \"#utility.yul\":4995:4996   */\n      0x00\n        /* \"#utility.yul\":4984:4993   */\n      dup4\n        /* \"#utility.yul\":4980:4997   */\n      add\n        /* \"#utility.yul\":4971:4977   */\n      dup5\n        /* \"#utility.yul\":4933:4998   */\n      tag_181\n      jump\t// in\n    tag_259:\n        /* \"#utility.yul\":4795:5005   */\n      swap3\n      swap2\n      pop\n      pop\n      jump\t// out\n        /* \"#utility.yul\":5011:5191   */\n    tag_53:\n        /* \"#utility.yul\":5059:5136   */\n      0x4e487b7100000000000000000000000000000000000000000000000000000000\n        /* \"#utility.yul\":5056:5057   */\n      0x00\n        /* \"#utility.yul\":5049:5137   */\n      mstore\n        /* \"#utility.yul\":5156:5160   */\n      0x41\n        /* \"#utility.yul\":5153:5154   */\n      0x04\n        /* \"#utility.yul\":5146:5161   */\n      mstore\n        /* \"#utility.yul\":5180:5184   */\n      0x24\n        /* \"#utility.yul\":5177:5178   */\n      0x00\n        /* \"#utility.yul\":5170:5185   */\n      revert\n        /* \"#utility.yul\":5197:5377   */\n    tag_67:\n        /* \"#utility.yul\":5245:5322   */\n      0x4e487b7100000000000000000000000000000000000000000000000000000000\n        /* \"#utility.yul\":5242:5243   */\n      0x00\n        /* \"#utility.yul\":5235:5323   */\n      mstore\n        /* \"#utility.yul\":5342:5346   */\n      0x32\n        /* \"#utility.yul\":5339:5340   */\n      0x04\n        /* \"#utility.yul\":5332:5347   */\n      mstore\n        /* \"#utility.yul\":5366:5370   */\n      0x24\n        /* \"#utility.yul\":5363:5364   */\n      0x00\n        /* \"#utility.yul\":5356:5371   */\n      revert\n        /* \"#utility.yul\":5383:5563   */\n    tag_182:\n        /* \"#utility.yul\":5431:5508   */\n      0x4e487b7100000000000000000000000000000000000000000000000000000000\n        /* \"#utility.yul\":5428:5429   */\n      0x00\n        /* \"#utility.yul\":5421:5509   */\n      mstore\n        /* \"#utility.yul\":5528:5532   */\n      0x11\n        /* \"#utility.yul\":5525:5526   */\n      0x04\n        /* \"#utility.yul\":5518:5533   */\n      mstore\n        /* \"#utility.yul\":5552:5556   */\n      0x24\n        /* \"#utility.yul\":5549:5550   */\n      0x00\n        /* \"#utility.yul\":5542:5557   */\n      revert\n        /* \"#utility.yul\":5569:5760   */\n    tag_83:\n        /* \"#utility.yul\":5609:5612   */\n      0x00\n        /* \"#utility.yul\":5628:5648   */\n      tag_264\n        /* \"#utility.yul\":5646:5647   */\n      dup3\n        /* \"#utility.yul\":5628:5648   */\n      tag_175\n      jump\t// in\n    tag_264:\n        /* \"#utility.yul\":5623:5648   */\n      swap2\n      pop\n        /* \"#utility.yul\":5662:5682   */\n      tag_265\n        /* \"#utility.yul\":5680:5681   */\n      dup4\n        /* \"#utility.yul\":5662:5682   */\n      tag_175\n      jump\t// in\n    tag_265:\n        /* \"#utility.yul\":5657:5682   */\n      swap3\n      pop\n        /* \"#utility.yul\":5705:5706   */\n      dup3\n        /* \"#utility.yul\":5702:5703   */\n      dup3\n        /* \"#utility.yul\":5698:5707   */\n      add\n        /* \"#utility.yul\":5691:5707   */\n      swap1\n      pop\n        /* \"#utility.yul\":5726:5729   */\n      dup1\n        /* \"#utility.yul\":5723:5724   */\n      dup3\n        /* \"#utility.yul\":5720:5730   */\n      gt\n        /* \"#utility.yul\":5717:5753   */\n      iszero\n      tag_266\n      jumpi\n        /* \"#utility.yul\":5733:5751   */\n      tag_267\n      tag_182\n      jump\t// in\n    tag_267:\n        /* \"#utility.yul\":5717:5753   */\n    tag_266:\n        /* \"#utility.yul\":5569:5760   */\n      swap3\n      swap2\n      pop\n      pop\n      jump\t// out\n        /* \"#utility.yul\":5766:5935   */\n    tag_183:\n        /* \"#utility.yul\":5850:5861   */\n      0x00\n        /* \"#utility.yul\":5884:5890   */\n      dup3\n        /* \"#utility.yul\":5879:5882   */\n      dup3\n        /* \"#utility.yul\":5872:5891   */\n      mstore\n        /* \"#utility.yul\":5924:5928   */\n      0x20\n        /* \"#utility.yul\":5919:5922   */\n      dup3\n        /* \"#utility.yul\":5915:5929   */\n      add\n        /* \"#utility.yul\":5900:5929   */\n      swap1\n      pop\n        /* \"#utility.yul\":5766:5935   */\n      swap3\n      swap2\n      pop\n      pop\n      jump\t// out\n        /* \"#utility.yul\":5941:6161   */\n    tag_184:\n        /* \"#utility.yul\":6081:6115   */\n      0x717565727920616464726573732063616e6e6f74206265206164647265737320\n        /* \"#utility.yul\":6077:6078   */\n      0x00\n        /* \"#utility.yul\":6069:6075   */\n      dup3\n        /* \"#utility.yul\":6065:6079   */\n      add\n        /* \"#utility.yul\":6058:6116   */\n      mstore\n        /* \"#utility.yul\":6150:6153   */\n      0x3000000000000000000000000000000000000000000000000000000000000000\n        /* \"#utility.yul\":6145:6147   */\n      0x20\n        /* \"#utility.yul\":6137:6143   */\n      dup3\n        /* \"#utility.yul\":6133:6148   */\n      add\n        /* \"#utility.yul\":6126:6154   */\n      mstore\n        /* \"#utility.yul\":5941:6161   */\n      pop\n      jump\t// out\n        /* \"#utility.yul\":6167:6533   */\n    tag_185:\n        /* \"#utility.yul\":6309:6312   */\n      0x00\n        /* \"#utility.yul\":6330:6397   */\n      tag_271\n        /* \"#utility.yul\":6394:6396   */\n      0x21\n        /* \"#utility.yul\":6389:6392   */\n      dup4\n        /* \"#utility.yul\":6330:6397   */\n      tag_183\n      jump\t// in\n    tag_271:\n        /* \"#utility.yul\":6323:6397   */\n      swap2\n      pop\n        /* \"#utility.yul\":6406:6499   */\n      tag_272\n        /* \"#utility.yul\":6495:6498   */\n      dup3\n        /* \"#utility.yul\":6406:6499   */\n      tag_184\n      jump\t// in\n    tag_272:\n        /* \"#utility.yul\":6524:6526   */\n      0x40\n        /* \"#utility.yul\":6519:6522   */\n      dup3\n        /* \"#utility.yul\":6515:6527   */\n      add\n        /* \"#utility.yul\":6508:6527   */\n      swap1\n      pop\n        /* \"#utility.yul\":6167:6533   */\n      swap2\n      swap1\n      pop\n      jump\t// out\n        /* \"#utility.yul\":6539:6958   */\n    tag_117:\n        /* \"#utility.yul\":6705:6709   */\n      0x00\n        /* \"#utility.yul\":6743:6745   */\n      0x20\n        /* \"#utility.yul\":6732:6741   */\n      dup3\n        /* \"#utility.yul\":6728:6746   */\n      add\n        /* \"#utility.yul\":6720:6746   */\n      swap1\n      pop\n        /* \"#utility.yul\":6792:6801   */\n      dup2\n        /* \"#utility.yul\":6786:6790   */\n      dup2\n        /* \"#utility.yul\":6782:6802   */\n      sub\n        /* \"#utility.yul\":6778:6779   */\n      0x00\n        /* \"#utility.yul\":6767:6776   */\n      dup4\n        /* \"#utility.yul\":6763:6780   */\n      add\n        /* \"#utility.yul\":6756:6803   */\n      mstore\n        /* \"#utility.yul\":6820:6951   */\n      tag_274\n        /* \"#utility.yul\":6946:6950   */\n      dup2\n        /* \"#utility.yul\":6820:6951   */\n      tag_185\n      jump\t// in\n    tag_274:\n        /* \"#utility.yul\":6812:6951   */\n      swap1\n      pop\n        /* \"#utility.yul\":6539:6958   */\n      swap2\n      swap1\n      pop\n      jump\t// out\n        /* \"#utility.yul\":6964:7144   */\n    tag_186:\n        /* \"#utility.yul\":7012:7089   */\n      0x4e487b7100000000000000000000000000000000000000000000000000000000\n        /* \"#utility.yul\":7009:7010   */\n      0x00\n        /* \"#utility.yul\":7002:7090   */\n      mstore\n        /* \"#utility.yul\":7109:7113   */\n      0x12\n        /* \"#utility.yul\":7106:7107   */\n      0x04\n        /* \"#utility.yul\":7099:7114   */\n      mstore\n        /* \"#utility.yul\":7133:7137   */\n      0x24\n        /* \"#utility.yul\":7130:7131   */\n      0x00\n        /* \"#utility.yul\":7123:7138   */\n      revert\n        /* \"#utility.yul\":7150:7335   */\n    tag_120:\n        /* \"#utility.yul\":7190:7191   */\n      0x00\n        /* \"#utility.yul\":7207:7227   */\n      tag_277\n        /* \"#utility.yul\":7225:7226   */\n      dup3\n        /* \"#utility.yul\":7207:7227   */\n      tag_175\n      jump\t// in\n    tag_277:\n        /* \"#utility.yul\":7202:7227   */\n      swap2\n      pop\n        /* \"#utility.yul\":7241:7261   */\n      tag_278\n        /* \"#utility.yul\":7259:7260   */\n      dup4\n        /* \"#utility.yul\":7241:7261   */\n      tag_175\n      jump\t// in\n    tag_278:\n        /* \"#utility.yul\":7236:7261   */\n      swap3\n      pop\n        /* \"#utility.yul\":7280:7281   */\n      dup3\n        /* \"#utility.yul\":7270:7305   */\n      tag_279\n      jumpi\n        /* \"#utility.yul\":7285:7303   */\n      tag_280\n      tag_186\n      jump\t// in\n    tag_280:\n        /* \"#utility.yul\":7270:7305   */\n    tag_279:\n        /* \"#utility.yul\":7327:7328   */\n      dup3\n        /* \"#utility.yul\":7324:7325   */\n      dup3\n        /* \"#utility.yul\":7320:7329   */\n      div\n        /* \"#utility.yul\":7315:7329   */\n      swap1\n      pop\n        /* \"#utility.yul\":7150:7335   */\n      swap3\n      swap2\n      pop\n      pop\n      jump\t// out\n        /* \"#utility.yul\":7341:7517   */\n    tag_122:\n        /* \"#utility.yul\":7373:7374   */\n      0x00\n        /* \"#utility.yul\":7390:7410   */\n      tag_282\n        /* \"#utility.yul\":7408:7409   */\n      dup3\n        /* \"#utility.yul\":7390:7410   */\n      tag_175\n      jump\t// in\n    tag_282:\n        /* \"#utility.yul\":7385:7410   */\n      swap2\n      pop\n        /* \"#utility.yul\":7424:7444   */\n      tag_283\n        /* \"#utility.yul\":7442:7443   */\n      dup4\n        /* \"#utility.yul\":7424:7444   */\n      tag_175\n      jump\t// in\n    tag_283:\n        /* \"#utility.yul\":7419:7444   */\n      swap3\n      pop\n        /* \"#utility.yul\":7463:7464   */\n      dup3\n        /* \"#utility.yul\":7453:7488   */\n      tag_284\n      jumpi\n        /* \"#utility.yul\":7468:7486   */\n      tag_285\n      tag_186\n      jump\t// in\n    tag_285:\n        /* \"#utility.yul\":7453:7488   */\n    tag_284:\n        /* \"#utility.yul\":7509:7510   */\n      dup3\n        /* \"#utility.yul\":7506:7507   */\n      dup3\n        /* \"#utility.yul\":7502:7511   */\n      mod\n        /* \"#utility.yul\":7497:7511   */\n      swap1\n      pop\n        /* \"#utility.yul\":7341:7517   */\n      swap3\n      swap2\n      pop\n      pop\n      jump\t// out\n        /* \"#utility.yul\":7523:7697   */\n    tag_187:\n        /* \"#utility.yul\":7663:7689   */\n      0x6f6e6c79206f776e65722063616e2077697468647261776e0000000000000000\n        /* \"#utility.yul\":7659:7660   */\n      0x00\n        /* \"#utility.yul\":7651:7657   */\n      dup3\n        /* \"#utility.yul\":7647:7661   */\n      add\n        /* \"#utility.yul\":7640:7690   */\n      mstore\n        /* \"#utility.yul\":7523:7697   */\n      pop\n      jump\t// out\n        /* \"#utility.yul\":7703:8069   */\n    tag_188:\n        /* \"#utility.yul\":7845:7848   */\n      0x00\n        /* \"#utility.yul\":7866:7933   */\n      tag_288\n        /* \"#utility.yul\":7930:7932   */\n      0x18\n        /* \"#utility.yul\":7925:7928   */\n      dup4\n        /* \"#utility.yul\":7866:7933   */\n      tag_183\n      jump\t// in\n    tag_288:\n        /* \"#utility.yul\":7859:7933   */\n      swap2\n      pop\n        /* \"#utility.yul\":7942:8035   */\n      tag_289\n        /* \"#utility.yul\":8031:8034   */\n      dup3\n        /* \"#utility.yul\":7942:8035   */\n      tag_187\n      jump\t// in\n    tag_289:\n        /* \"#utility.yul\":8060:8062   */\n      0x20\n        /* \"#utility.yul\":8055:8058   */\n      dup3\n        /* \"#utility.yul\":8051:8063   */\n      add\n        /* \"#utility.yul\":8044:8063   */\n      swap1\n      pop\n        /* \"#utility.yul\":7703:8069   */\n      swap2\n      swap1\n      pop\n      jump\t// out\n        /* \"#utility.yul\":8075:8494   */\n    tag_128:\n        /* \"#utility.yul\":8241:8245   */\n      0x00\n        /* \"#utility.yul\":8279:8281   */\n      0x20\n        /* \"#utility.yul\":8268:8277   */\n      dup3\n        /* \"#utility.yul\":8264:8282   */\n      add\n        /* \"#utility.yul\":8256:8282   */\n      swap1\n      pop\n        /* \"#utility.yul\":8328:8337   */\n      dup2\n        /* \"#utility.yul\":8322:8326   */\n      dup2\n        /* \"#utility.yul\":8318:8338   */\n      sub\n        /* \"#utility.yul\":8314:8315   */\n      0x00\n        /* \"#utility.yul\":8303:8312   */\n      dup4\n        /* \"#utility.yul\":8299:8316   */\n      add\n        /* \"#utility.yul\":8292:8339   */\n      mstore\n        /* \"#utility.yul\":8356:8487   */\n      tag_291\n        /* \"#utility.yul\":8482:8486   */\n      dup2\n        /* \"#utility.yul\":8356:8487   */\n      tag_188\n      jump\t// in\n    tag_291:\n        /* \"#utility.yul\":8348:8487   */\n      swap1\n      pop\n        /* \"#utility.yul\":8075:8494   */\n      swap2\n      swap1\n      pop\n      jump\t// out\n        /* \"#utility.yul\":8500:8667   */\n    tag_189:\n        /* \"#utility.yul\":8640:8659   */\n      0x77697468647261776e2073756363657373000000000000000000000000000000\n        /* \"#utility.yul\":8636:8637   */\n      0x00\n        /* \"#utility.yul\":8628:8634   */\n      dup3\n        /* \"#utility.yul\":8624:8638   */\n      add\n        /* \"#utility.yul\":8617:8660   */\n      mstore\n        /* \"#utility.yul\":8500:8667   */\n      pop\n      jump\t// out\n        /* \"#utility.yul\":8673:9039   */\n    tag_190:\n        /* \"#utility.yul\":8815:8818   */\n      0x00\n        /* \"#utility.yul\":8836:8903   */\n      tag_294\n        /* \"#utility.yul\":8900:8902   */\n      0x11\n        /* \"#utility.yul\":8895:8898   */\n      dup4\n        /* \"#utility.yul\":8836:8903   */\n      tag_183\n      jump\t// in\n    tag_294:\n        /* \"#utility.yul\":8829:8903   */\n      swap2\n      pop\n        /* \"#utility.yul\":8912:9005   */\n      tag_295\n        /* \"#utility.yul\":9001:9004   */\n      dup3\n        /* \"#utility.yul\":8912:9005   */\n      tag_189\n      jump\t// in\n    tag_295:\n        /* \"#utility.yul\":9030:9032   */\n      0x20\n        /* \"#utility.yul\":9025:9028   */\n      dup3\n        /* \"#utility.yul\":9021:9033   */\n      add\n        /* \"#utility.yul\":9014:9033   */\n      swap1\n      pop\n        /* \"#utility.yul\":8673:9039   */\n      swap2\n      swap1\n      pop\n      jump\t// out\n        /* \"#utility.yul\":9045:9684   */\n    tag_134:\n        /* \"#utility.yul\":9267:9271   */\n      0x00\n        /* \"#utility.yul\":9305:9307   */\n      0x60\n        /* \"#utility.yul\":9294:9303   */\n      dup3\n        /* \"#utility.yul\":9290:9308   */\n      add\n        /* \"#utility.yul\":9282:9308   */\n      swap1\n      pop\n        /* \"#utility.yul\":9318:9389   */\n      tag_297\n        /* \"#utility.yul\":9386:9387   */\n      0x00\n        /* \"#utility.yul\":9375:9384   */\n      dup4\n        /* \"#utility.yul\":9371:9388   */\n      add\n        /* \"#utility.yul\":9362:9368   */\n      dup6\n        /* \"#utility.yul\":9318:9389   */\n      tag_177\n      jump\t// in\n    tag_297:\n        /* \"#utility.yul\":9399:9471   */\n      tag_298\n        /* \"#utility.yul\":9467:9469   */\n      0x20\n        /* \"#utility.yul\":9456:9465   */\n      dup4\n        /* \"#utility.yul\":9452:9470   */\n      add\n        /* \"#utility.yul\":9443:9449   */\n      dup5\n        /* \"#utility.yul\":9399:9471   */\n      tag_176\n      jump\t// in\n    tag_298:\n        /* \"#utility.yul\":9518:9527   */\n      dup2\n        /* \"#utility.yul\":9512:9516   */\n      dup2\n        /* \"#utility.yul\":9508:9528   */\n      sub\n        /* \"#utility.yul\":9503:9505   */\n      0x40\n        /* \"#utility.yul\":9492:9501   */\n      dup4\n        /* \"#utility.yul\":9488:9506   */\n      add\n        /* \"#utility.yul\":9481:9529   */\n      mstore\n        /* \"#utility.yul\":9546:9677   */\n      tag_299\n        /* \"#utility.yul\":9672:9676   */\n      dup2\n        /* \"#utility.yul\":9546:9677   */\n      tag_190\n      jump\t// in\n    tag_299:\n        /* \"#utility.yul\":9538:9677   */\n      swap1\n      pop\n        /* \"#utility.yul\":9045:9684   */\n      swap4\n      swap3\n      pop\n      pop\n      pop\n      jump\t// out\n        /* \"#utility.yul\":9690:9856   */\n    tag_191:\n        /* \"#utility.yul\":9830:9848   */\n      0x77697468647261776e206661696c656400000000000000000000000000000000\n        /* \"#utility.yul\":9826:9827   */\n      0x00\n        /* \"#utility.yul\":9818:9824   */\n      dup3\n        /* \"#utility.yul\":9814:9828   */\n      add\n        /* \"#utility.yul\":9807:9849   */\n      mstore\n        /* \"#utility.yul\":9690:9856   */\n      pop\n      jump\t// out\n        /* \"#utility.yul\":9862:10228   */\n    tag_192:\n        /* \"#utility.yul\":10004:10007   */\n      0x00\n        /* \"#utility.yul\":10025:10092   */\n      tag_302\n        /* \"#utility.yul\":10089:10091   */\n      0x10\n        /* \"#utility.yul\":10084:10087   */\n      dup4\n        /* \"#utility.yul\":10025:10092   */\n      tag_183\n      jump\t// in\n    tag_302:\n        /* \"#utility.yul\":10018:10092   */\n      swap2\n      pop\n        /* \"#utility.yul\":10101:10194   */\n      tag_303\n        /* \"#utility.yul\":10190:10193   */\n      dup3\n        /* \"#utility.yul\":10101:10194   */\n      tag_191\n      jump\t// in\n    tag_303:\n        /* \"#utility.yul\":10219:10221   */\n      0x20\n        /* \"#utility.yul\":10214:10217   */\n      dup3\n        /* \"#utility.yul\":10210:10222   */\n      add\n        /* \"#utility.yul\":10203:10222   */\n      swap1\n      pop\n        /* \"#utility.yul\":9862:10228   */\n      swap2\n      swap1\n      pop\n      jump\t// out\n        /* \"#utility.yul\":10234:10873   */\n    tag_136:\n        /* \"#utility.yul\":10456:10460   */\n      0x00\n        /* \"#utility.yul\":10494:10496   */\n      0x60\n        /* \"#utility.yul\":10483:10492   */\n      dup3\n        /* \"#utility.yul\":10479:10497   */\n      add\n        /* \"#utility.yul\":10471:10497   */\n      swap1\n      pop\n        /* \"#utility.yul\":10507:10578   */\n      tag_305\n        /* \"#utility.yul\":10575:10576   */\n      0x00\n        /* \"#utility.yul\":10564:10573   */\n      dup4\n        /* \"#utility.yul\":10560:10577   */\n      add\n        /* \"#utility.yul\":10551:10557   */\n      dup6\n        /* \"#utility.yul\":10507:10578   */\n      tag_177\n      jump\t// in\n    tag_305:\n        /* \"#utility.yul\":10588:10660   */\n      tag_306\n        /* \"#utility.yul\":10656:10658   */\n      0x20\n        /* \"#utility.yul\":10645:10654   */\n      dup4\n        /* \"#utility.yul\":10641:10659   */\n      add\n        /* \"#utility.yul\":10632:10638   */\n      dup5\n        /* \"#utility.yul\":10588:10660   */\n      tag_176\n      jump\t// in\n    tag_306:\n        /* \"#utility.yul\":10707:10716   */\n      dup2\n        /* \"#utility.yul\":10701:10705   */\n      dup2\n        /* \"#utility.yul\":10697:10717   */\n      sub\n        /* \"#utility.yul\":10692:10694   */\n      0x40\n        /* \"#utility.yul\":10681:10690   */\n      dup4\n        /* \"#utility.yul\":10677:10695   */\n      add\n        /* \"#utility.yul\":10670:10718   */\n      mstore\n        /* \"#utility.yul\":10735:10866   */\n      tag_307\n        /* \"#utility.yul\":10861:10865   */\n      dup2\n        /* \"#utility.yul\":10735:10866   */\n      tag_192\n      jump\t// in\n    tag_307:\n        /* \"#utility.yul\":10727:10866   */\n      swap1\n      pop\n        /* \"#utility.yul\":10234:10873   */\n      swap4\n      swap3\n      pop\n      pop\n      pop\n      jump\t// out\n        /* \"#utility.yul\":10879:11047   */\n    tag_193:\n        /* \"#utility.yul\":11019:11039   */\n      0x646f6e6174652074696d65206578636565640000000000000000000000000000\n        /* \"#utility.yul\":11015:11016   */\n      0x00\n        /* \"#utility.yul\":11007:11013   */\n      dup3\n        /* \"#utility.yul\":11003:11017   */\n      add\n        /* \"#utility.yul\":10996:11040   */\n      mstore\n        /* \"#utility.yul\":10879:11047   */\n      pop\n      jump\t// out\n        /* \"#utility.yul\":11053:11419   */\n    tag_194:\n        /* \"#utility.yul\":11195:11198   */\n      0x00\n        /* \"#utility.yul\":11216:11283   */\n      tag_310\n        /* \"#utility.yul\":11280:11282   */\n      0x12\n        /* \"#utility.yul\":11275:11278   */\n      dup4\n        /* \"#utility.yul\":11216:11283   */\n      tag_183\n      jump\t// in\n    tag_310:\n        /* \"#utility.yul\":11209:11283   */\n      swap2\n      pop\n        /* \"#utility.yul\":11292:11385   */\n      tag_311\n        /* \"#utility.yul\":11381:11384   */\n      dup3\n        /* \"#utility.yul\":11292:11385   */\n      tag_193\n      jump\t// in\n    tag_311:\n        /* \"#utility.yul\":11410:11412   */\n      0x20\n        /* \"#utility.yul\":11405:11408   */\n      dup3\n        /* \"#utility.yul\":11401:11413   */\n      add\n        /* \"#utility.yul\":11394:11413   */\n      swap1\n      pop\n        /* \"#utility.yul\":11053:11419   */\n      swap2\n      swap1\n      pop\n      jump\t// out\n        /* \"#utility.yul\":11425:11844   */\n    tag_143:\n        /* \"#utility.yul\":11591:11595   */\n      0x00\n        /* \"#utility.yul\":11629:11631   */\n      0x20\n        /* \"#utility.yul\":11618:11627   */\n      dup3\n        /* \"#utility.yul\":11614:11632   */\n      add\n        /* \"#utility.yul\":11606:11632   */\n      swap1\n      pop\n        /* \"#utility.yul\":11678:11687   */\n      dup2\n        /* \"#utility.yul\":11672:11676   */\n      dup2\n        /* \"#utility.yul\":11668:11688   */\n      sub\n        /* \"#utility.yul\":11664:11665   */\n      0x00\n        /* \"#utility.yul\":11653:11662   */\n      dup4\n        /* \"#utility.yul\":11649:11666   */\n      add\n        /* \"#utility.yul\":11642:11689   */\n      mstore\n        /* \"#utility.yul\":11706:11837   */\n      tag_313\n        /* \"#utility.yul\":11832:11836   */\n      dup2\n        /* \"#utility.yul\":11706:11837   */\n      tag_194\n      jump\t// in\n    tag_313:\n        /* \"#utility.yul\":11698:11837   */\n      swap1\n      pop\n        /* \"#utility.yul\":11425:11844   */\n      swap2\n      swap1\n      pop\n      jump\t// out\n        /* \"#utility.yul\":11850:12072   */\n    tag_195:\n        /* \"#utility.yul\":11990:12024   */\n      0x646f6e61746520616d6f756e74206d7573737420677265617468657220746861\n        /* \"#utility.yul\":11986:11987   */\n      0x00\n        /* \"#utility.yul\":11978:11984   */\n      dup3\n        /* \"#utility.yul\":11974:11988   */\n      add\n        /* \"#utility.yul\":11967:12025   */\n      mstore\n        /* \"#utility.yul\":12059:12064   */\n      0x6e20300000000000000000000000000000000000000000000000000000000000\n        /* \"#utility.yul\":12054:12056   */\n      0x20\n        /* \"#utility.yul\":12046:12052   */\n      dup3\n        /* \"#utility.yul\":12042:12057   */\n      add\n        /* \"#utility.yul\":12035:12065   */\n      mstore\n        /* \"#utility.yul\":11850:12072   */\n      pop\n      jump\t// out\n        /* \"#utility.yul\":12078:12444   */\n    tag_196:\n        /* \"#utility.yul\":12220:12223   */\n      0x00\n        /* \"#utility.yul\":12241:12308   */\n      tag_316\n        /* \"#utility.yul\":12305:12307   */\n      0x23\n        /* \"#utility.yul\":12300:12303   */\n      dup4\n        /* \"#utility.yul\":12241:12308   */\n      tag_183\n      jump\t// in\n    tag_316:\n        /* \"#utility.yul\":12234:12308   */\n      swap2\n      pop\n        /* \"#utility.yul\":12317:12410   */\n      tag_317\n        /* \"#utility.yul\":12406:12409   */\n      dup3\n        /* \"#utility.yul\":12317:12410   */\n      tag_195\n      jump\t// in\n    tag_317:\n        /* \"#utility.yul\":12435:12437   */\n      0x40\n        /* \"#utility.yul\":12430:12433   */\n      dup3\n        /* \"#utility.yul\":12426:12438   */\n      add\n        /* \"#utility.yul\":12419:12438   */\n      swap1\n      pop\n        /* \"#utility.yul\":12078:12444   */\n      swap2\n      swap1\n      pop\n      jump\t// out\n        /* \"#utility.yul\":12450:12869   */\n    tag_147:\n        /* \"#utility.yul\":12616:12620   */\n      0x00\n        /* \"#utility.yul\":12654:12656   */\n      0x20\n        /* \"#utility.yul\":12643:12652   */\n      dup3\n        /* \"#utility.yul\":12639:12657   */\n      add\n        /* \"#utility.yul\":12631:12657   */\n      swap1\n      pop\n        /* \"#utility.yul\":12703:12712   */\n      dup2\n        /* \"#utility.yul\":12697:12701   */\n      dup2\n        /* \"#utility.yul\":12693:12713   */\n      sub\n        /* \"#utility.yul\":12689:12690   */\n      0x00\n        /* \"#utility.yul\":12678:12687   */\n      dup4\n        /* \"#utility.yul\":12674:12691   */\n      add\n        /* \"#utility.yul\":12667:12714   */\n      mstore\n        /* \"#utility.yul\":12731:12862   */\n      tag_319\n        /* \"#utility.yul\":12857:12861   */\n      dup2\n        /* \"#utility.yul\":12731:12862   */\n      tag_196\n      jump\t// in\n    tag_319:\n        /* \"#utility.yul\":12723:12862   */\n      swap1\n      pop\n        /* \"#utility.yul\":12450:12869   */\n      swap2\n      swap1\n      pop\n      jump\t// out\n        /* \"#utility.yul\":12875:13022   */\n    tag_197:\n        /* \"#utility.yul\":12976:12987   */\n      0x00\n        /* \"#utility.yul\":13013:13016   */\n      dup2\n        /* \"#utility.yul\":12998:13016   */\n      swap1\n      pop\n        /* \"#utility.yul\":12875:13022   */\n      swap3\n      swap2\n      pop\n      pop\n      jump\t// out\n        /* \"#utility.yul\":13028:13142   */\n    tag_198:\n      pop\n      jump\t// out\n        /* \"#utility.yul\":13148:13546   */\n    tag_199:\n        /* \"#utility.yul\":13307:13310   */\n      0x00\n        /* \"#utility.yul\":13328:13411   */\n      tag_323\n        /* \"#utility.yul\":13409:13410   */\n      0x00\n        /* \"#utility.yul\":13404:13407   */\n      dup4\n        /* \"#utility.yul\":13328:13411   */\n      tag_197\n      jump\t// in\n    tag_323:\n        /* \"#utility.yul\":13321:13411   */\n      swap2\n      pop\n        /* \"#utility.yul\":13420:13513   */\n      tag_324\n        /* \"#utility.yul\":13509:13512   */\n      dup3\n        /* \"#utility.yul\":13420:13513   */\n      tag_198\n      jump\t// in\n    tag_324:\n        /* \"#utility.yul\":13538:13539   */\n      0x00\n        /* \"#utility.yul\":13533:13536   */\n      dup3\n        /* \"#utility.yul\":13529:13540   */\n      add\n        /* \"#utility.yul\":13522:13540   */\n      swap1\n      pop\n        /* \"#utility.yul\":13148:13546   */\n      swap2\n      swap1\n      pop\n      jump\t// out\n        /* \"#utility.yul\":13552:13931   */\n    tag_152:\n        /* \"#utility.yul\":13736:13739   */\n      0x00\n        /* \"#utility.yul\":13758:13905   */\n      tag_326\n        /* \"#utility.yul\":13901:13904   */\n      dup3\n        /* \"#utility.yul\":13758:13905   */\n      tag_199\n      jump\t// in\n    tag_326:\n        /* \"#utility.yul\":13751:13905   */\n      swap2\n      pop\n        /* \"#utility.yul\":13922:13925   */\n      dup2\n        /* \"#utility.yul\":13915:13925   */\n      swap1\n      pop\n        /* \"#utility.yul\":13552:13931   */\n      swap2\n      swap1\n      pop\n      jump\t// out\n        /* \"#utility.yul\":13937:14100   */\n    tag_200:\n        /* \"#utility.yul\":14077:14092   */\n      0x646f6e617465206661696c656400000000000000000000000000000000000000\n        /* \"#utility.yul\":14073:14074   */\n      0x00\n        /* \"#utility.yul\":14065:14071   */\n      dup3\n        /* \"#utility.yul\":14061:14075   */\n      add\n        /* \"#utility.yul\":14054:14093   */\n      mstore\n        /* \"#utility.yul\":13937:14100   */\n      pop\n      jump\t// out\n        /* \"#utility.yul\":14106:14472   */\n    tag_201:\n        /* \"#utility.yul\":14248:14251   */\n      0x00\n        /* \"#utility.yul\":14269:14336   */\n      tag_329\n        /* \"#utility.yul\":14333:14335   */\n      0x0d\n        /* \"#utility.yul\":14328:14331   */\n      dup4\n        /* \"#utility.yul\":14269:14336   */\n      tag_183\n      jump\t// in\n    tag_329:\n        /* \"#utility.yul\":14262:14336   */\n      swap2\n      pop\n        /* \"#utility.yul\":14345:14438   */\n      tag_330\n        /* \"#utility.yul\":14434:14437   */\n      dup3\n        /* \"#utility.yul\":14345:14438   */\n      tag_200\n      jump\t// in\n    tag_330:\n        /* \"#utility.yul\":14463:14465   */\n      0x20\n        /* \"#utility.yul\":14458:14461   */\n      dup3\n        /* \"#utility.yul\":14454:14466   */\n      add\n        /* \"#utility.yul\":14447:14466   */\n      swap1\n      pop\n        /* \"#utility.yul\":14106:14472   */\n      swap2\n      swap1\n      pop\n      jump\t// out\n        /* \"#utility.yul\":14478:15117   */\n    tag_158:\n        /* \"#utility.yul\":14700:14704   */\n      0x00\n        /* \"#utility.yul\":14738:14740   */\n      0x60\n        /* \"#utility.yul\":14727:14736   */\n      dup3\n        /* \"#utility.yul\":14723:14741   */\n      add\n        /* \"#utility.yul\":14715:14741   */\n      swap1\n      pop\n        /* \"#utility.yul\":14751:14822   */\n      tag_332\n        /* \"#utility.yul\":14819:14820   */\n      0x00\n        /* \"#utility.yul\":14808:14817   */\n      dup4\n        /* \"#utility.yul\":14804:14821   */\n      add\n        /* \"#utility.yul\":14795:14801   */\n      dup6\n        /* \"#utility.yul\":14751:14822   */\n      tag_177\n      jump\t// in\n    tag_332:\n        /* \"#utility.yul\":14832:14904   */\n      tag_333\n        /* \"#utility.yul\":14900:14902   */\n      0x20\n        /* \"#utility.yul\":14889:14898   */\n      dup4\n        /* \"#utility.yul\":14885:14903   */\n      add\n        /* \"#utility.yul\":14876:14882   */\n      dup5\n        /* \"#utility.yul\":14832:14904   */\n      tag_176\n      jump\t// in\n    tag_333:\n        /* \"#utility.yul\":14951:14960   */\n      dup2\n        /* \"#utility.yul\":14945:14949   */\n      dup2\n        /* \"#utility.yul\":14941:14961   */\n      sub\n        /* \"#utility.yul\":14936:14938   */\n      0x40\n        /* \"#utility.yul\":14925:14934   */\n      dup4\n        /* \"#utility.yul\":14921:14939   */\n      add\n        /* \"#utility.yul\":14914:14962   */\n      mstore\n        /* \"#utility.yul\":14979:15110   */\n      tag_334\n        /* \"#utility.yul\":15105:15109   */\n      dup2\n        /* \"#utility.yul\":14979:15110   */\n      tag_201\n      jump\t// in\n    tag_334:\n        /* \"#utility.yul\":14971:15110   */\n      swap1\n      pop\n        /* \"#utility.yul\":14478:15117   */\n      swap4\n      swap3\n      pop\n      pop\n      pop\n      jump\t// out\n        /* \"#utility.yul\":15123:15455   */\n    tag_160:\n        /* \"#utility.yul\":15244:15248   */\n      0x00\n        /* \"#utility.yul\":15282:15284   */\n      0x40\n        /* \"#utility.yul\":15271:15280   */\n      dup3\n        /* \"#utility.yul\":15267:15285   */\n      add\n        /* \"#utility.yul\":15259:15285   */\n      swap1\n      pop\n        /* \"#utility.yul\":15295:15366   */\n      tag_336\n        /* \"#utility.yul\":15363:15364   */\n      0x00\n        /* \"#utility.yul\":15352:15361   */\n      dup4\n        /* \"#utility.yul\":15348:15365   */\n      add\n        /* \"#utility.yul\":15339:15345   */\n      dup6\n        /* \"#utility.yul\":15295:15366   */\n      tag_177\n      jump\t// in\n    tag_336:\n        /* \"#utility.yul\":15376:15448   */\n      tag_337\n        /* \"#utility.yul\":15444:15446   */\n      0x20\n        /* \"#utility.yul\":15433:15442   */\n      dup4\n        /* \"#utility.yul\":15429:15447   */\n      add\n        /* \"#utility.yul\":15420:15426   */\n      dup5\n        /* \"#utility.yul\":15376:15448   */\n      tag_176\n      jump\t// in\n    tag_337:\n        /* \"#utility.yul\":15123:15455   */\n      swap4\n      swap3\n      pop\n      pop\n      pop\n      jump\t// out\n\n    auxdata: 0xa264697066735822122046ca034b5548182a0a4993b1bdd5b61339af349b673778f63f819c7574d5060864736f6c634300081e0033\n}\n",
				"bytecode": {
					"linkReferences": {},
					"object": "608060405234801561000f575f5ffd5b50604051611479380380611479833981810160405281019061003191906100d5565b8060015f6101000a81548173ffffffffffffffffffffffffffffffffffffffff021916908373ffffffffffffffffffffffffffffffffffffffff16021790555050610100565b5f5ffd5b5f73ffffffffffffffffffffffffffffffffffffffff82169050919050565b5f6100a48261007b565b9050919050565b6100b48161009a565b81146100be575f5ffd5b50565b5f815190506100cf816100ab565b92915050565b5f602082840312156100ea576100e9610077565b5b5f6100f7848285016100c1565b91505092915050565b61136c8061010d5f395ff3fe60806040526004361061007a575f3560e01c8063a050a6a61161004d578063a050a6a614610138578063a757ecec14610174578063c80ec522146101b0578063ed88c68e146101c65761007a565b8063016c94641461007e578063410a1d32146100a857806356a01efe146100e45780638da5cb5b1461010e575b5f5ffd5b348015610089575f5ffd5b506100926101e4565b60405161009f9190610ca5565b60405180910390f35b3480156100b3575f5ffd5b506100ce60048036038101906100c99190610cf3565b610694565b6040516100db9190610d36565b60405180910390f35b3480156100ef575f5ffd5b506100f8610747565b6040516101059190610d36565b60405180910390f35b348015610119575f5ffd5b5061012261076c565b60405161012f9190610d5e565b60405180910390f35b348015610143575f5ffd5b5061015e60048036038101906101599190610cf3565b610791565b60405161016b9190610d36565b60405180910390f35b34801561017f575f5ffd5b5061019a60048036038101906101959190610da1565b6107a5565b6040516101a79190610d5e565b60405180910390f35b3480156101bb575f5ffd5b506101c46107e0565b005b6101ce610935565b6040516101db9190610de6565b60405180910390f35b60605f600367ffffffffffffffff81111561020257610201610dff565b5b6040519080825280602002602001820160405280156102305781602001602082028036833780820191505090505b5090505f600280549050036102485780915050610691565b5f60028054905090505f8167ffffffffffffffff81111561026c5761026b610dff565b5b60405190808252806020026020018201604052801561029a5781602001602082028036833780820191505090505b5090505f8267ffffffffffffffff8111156102b8576102b7610dff565b5b6040519080825280602002602001820160405280156102e65781602001602082028036833780820191505090505b5090505f5f90505b83811015610423576002818154811061030a57610309610e2c565b5b905f5260205f20015f9054906101000a900473ffffffffffffffffffffffffffffffffffffffff1683828151811061034557610344610e2c565b5b602002602001019073ffffffffffffffffffffffffffffffffffffffff16908173ffffffffffffffffffffffffffffffffffffffff16815250505f5f6002838154811061039557610394610e2c565b5b905f5260205f20015f9054906101000a900473ffffffffffffffffffffffffffffffffffffffff1673ffffffffffffffffffffffffffffffffffffffff1673ffffffffffffffffffffffffffffffffffffffff1681526020019081526020015f205482828151811061040a57610409610e2c565b5b60200260200101818152505080806001019150506102ee565b505f5f90505b838110156105f0575f60018261043f9190610e86565b90505b848110156105e25782818151811061045d5761045c610e2c565b5b602002602001015183838151811061047857610477610e2c565b5b602002602001015110156105d5575f83838151811061049a57610499610e2c565b5b602002602001015190508382815181106104b7576104b6610e2c565b5b60200260200101518484815181106104d2576104d1610e2c565b5b602002602001018181525050808483815181106104f2576104f1610e2c565b5b6020026020010181815250505f85848151811061051257610511610e2c565b5b6020026020010151905085838151811061052f5761052e610e2c565b5b602002602001015186858151811061054a57610549610e2c565b5b602002602001019073ffffffffffffffffffffffffffffffffffffffff16908173ffffffffffffffffffffffffffffffffffffffff16815250508086848151811061059857610597610e2c565b5b602002602001019073ffffffffffffffffffffffffffffffffffffffff16908173ffffffffffffffffffffffffffffffffffffffff168152505050505b8080600101915050610442565b508080600101915050610429565b505f60038410610601576003610603565b835b90505f5f90505b818110156106875783818151811061062557610624610e2c565b5b60200260200101518682815181106106405761063f610e2c565b5b602002602001019073ffffffffffffffffffffffffffffffffffffffff16908173ffffffffffffffffffffffffffffffffffffffff1681525050808060010191505061060a565b5084955050505050505b90565b5f5f73ffffffffffffffffffffffffffffffffffffffff168273ffffffffffffffffffffffffffffffffffffffff1603610703576040517f08c379a00000000000000000000000000000000000000000000000000000000081526004016106fa90610f39565b60405180910390fd5b5f5f8373ffffffffffffffffffffffffffffffffffffffff1673ffffffffffffffffffffffffffffffffffffffff1681526020019081526020015f20549050919050565b5f5f6018610e10426107599190610f84565b6107639190610fb4565b90508091505090565b60015f9054906101000a900473ffffffffffffffffffffffffffffffffffffffff1681565b5f602052805f5260405f205f915090505481565b600281815481106107b4575f80fd5b905f5260205f20015f915054906101000a900473ffffffffffffffffffffffffffffffffffffffff1681565b60015f9054906101000a900473ffffffffffffffffffffffffffffffffffffffff1673ffffffffffffffffffffffffffffffffffffffff163373ffffffffffffffffffffffffffffffffffffffff161461086f576040517f08c379a00000000000000000000000000000000000000000000000000000000081526004016108669061102e565b60405180910390fd5b5f4790505f8111156108f9573373ffffffffffffffffffffffffffffffffffffffff166108fc8290811502906040515f60405180830381858888f193505050501580156108be573d5f5f3e3d5ffd5b507fb80d46a1fcb96f3896e038df66c1242504a8e49effecd0bf2473574707ca012133826040516108f0929190611096565b60405180910390a15b7fb80d46a1fcb96f3896e038df66c1242504a8e49effecd0bf2473574707ca0121338260405161092a92919061111a565b60405180910390a150565b5f6008610940610747565b101580156109565750600c610953610747565b11155b610995576040517f08c379a000000000000000000000000000000000000000000000000000000000815260040161098c9061119e565b60405180910390fd5b5f34116109d7576040517f08c379a00000000000000000000000000000000000000000000000000000000081526004016109ce9061122c565b60405180910390fd5b5f5f5f3373ffffffffffffffffffffffffffffffffffffffff1673ffffffffffffffffffffffffffffffffffffffff1681526020019081526020015f205403610a7b57600233908060018154018082558091505060019003905f5260205f20015f9091909190916101000a81548173ffffffffffffffffffffffffffffffffffffffff021916908373ffffffffffffffffffffffffffffffffffffffff1602179055505b345f5f3373ffffffffffffffffffffffffffffffffffffffff1673ffffffffffffffffffffffffffffffffffffffff1681526020019081526020015f205f828254610ac69190610e86565b925050819055505f3073ffffffffffffffffffffffffffffffffffffffff1634604051610af290611277565b5f6040518083038185875af1925050503d805f8114610b2c576040519150601f19603f3d011682016040523d82523d5f602084013e610b31565b606091505b5050905080610b7c577f5208fccd834797cd8b53844171c3fd9307640328101d77591eb870f8eadecac03334604051610b6b9291906112d5565b60405180910390a15f915050610bbb565b7f5d8bc849764969eb1bcc6d0a2f55999d0167c1ccec240a4f39cf664ca9c4148e3334604051610bad92919061130f565b60405180910390a160019150505b90565b5f81519050919050565b5f82825260208201905092915050565b5f819050602082019050919050565b5f73ffffffffffffffffffffffffffffffffffffffff82169050919050565b5f610c1082610be7565b9050919050565b610c2081610c06565b82525050565b5f610c318383610c17565b60208301905092915050565b5f602082019050919050565b5f610c5382610bbe565b610c5d8185610bc8565b9350610c6883610bd8565b805f5b83811015610c98578151610c7f8882610c26565b9750610c8a83610c3d565b925050600181019050610c6b565b5085935050505092915050565b5f6020820190508181035f830152610cbd8184610c49565b905092915050565b5f5ffd5b610cd281610c06565b8114610cdc575f5ffd5b50565b5f81359050610ced81610cc9565b92915050565b5f60208284031215610d0857610d07610cc5565b5b5f610d1584828501610cdf565b91505092915050565b5f819050919050565b610d3081610d1e565b82525050565b5f602082019050610d495f830184610d27565b92915050565b610d5881610c06565b82525050565b5f602082019050610d715f830184610d4f565b92915050565b610d8081610d1e565b8114610d8a575f5ffd5b50565b5f81359050610d9b81610d77565b92915050565b5f60208284031215610db657610db5610cc5565b5b5f610dc384828501610d8d565b91505092915050565b5f8115159050919050565b610de081610dcc565b82525050565b5f602082019050610df95f830184610dd7565b92915050565b7f4e487b71000000000000000000000000000000000000000000000000000000005f52604160045260245ffd5b7f4e487b71000000000000000000000000000000000000000000000000000000005f52603260045260245ffd5b7f4e487b71000000000000000000000000000000000000000000000000000000005f52601160045260245ffd5b5f610e9082610d1e565b9150610e9b83610d1e565b9250828201905080821115610eb357610eb2610e59565b5b92915050565b5f82825260208201905092915050565b7f717565727920616464726573732063616e6e6f742062652061646472657373205f8201527f3000000000000000000000000000000000000000000000000000000000000000602082015250565b5f610f23602183610eb9565b9150610f2e82610ec9565b604082019050919050565b5f6020820190508181035f830152610f5081610f17565b9050919050565b7f4e487b71000000000000000000000000000000000000000000000000000000005f52601260045260245ffd5b5f610f8e82610d1e565b9150610f9983610d1e565b925082610fa957610fa8610f57565b5b828204905092915050565b5f610fbe82610d1e565b9150610fc983610d1e565b925082610fd957610fd8610f57565b5b828206905092915050565b7f6f6e6c79206f776e65722063616e2077697468647261776e00000000000000005f82015250565b5f611018601883610eb9565b915061102382610fe4565b602082019050919050565b5f6020820190508181035f8301526110458161100c565b9050919050565b7f77697468647261776e20737563636573730000000000000000000000000000005f82015250565b5f611080601183610eb9565b915061108b8261104c565b602082019050919050565b5f6060820190506110a95f830185610d4f565b6110b66020830184610d27565b81810360408301526110c781611074565b90509392505050565b7f77697468647261776e206661696c6564000000000000000000000000000000005f82015250565b5f611104601083610eb9565b915061110f826110d0565b602082019050919050565b5f60608201905061112d5f830185610d4f565b61113a6020830184610d27565b818103604083015261114b816110f8565b90509392505050565b7f646f6e6174652074696d652065786365656400000000000000000000000000005f82015250565b5f611188601283610eb9565b915061119382611154565b602082019050919050565b5f6020820190508181035f8301526111b58161117c565b9050919050565b7f646f6e61746520616d6f756e74206d75737374206772656174686572207468615f8201527f6e20300000000000000000000000000000000000000000000000000000000000602082015250565b5f611216602383610eb9565b9150611221826111bc565b604082019050919050565b5f6020820190508181035f8301526112438161120a565b9050919050565b5f81905092915050565b50565b5f6112625f8361124a565b915061126d82611254565b5f82019050919050565b5f61128182611257565b9150819050919050565b7f646f6e617465206661696c6564000000000000000000000000000000000000005f82015250565b5f6112bf600d83610eb9565b91506112ca8261128b565b602082019050919050565b5f6060820190506112e85f830185610d4f565b6112f56020830184610d27565b8181036040830152611306816112b3565b90509392505050565b5f6040820190506113225f830185610d4f565b61132f6020830184610d27565b939250505056fea264697066735822122046ca034b5548182a0a4993b1bdd5b61339af349b673778f63f819c7574d5060864736f6c634300081e0033",
					"opcodes": "PUSH1 0x80 PUSH1 0x40 MSTORE CALLVALUE DUP1 ISZERO PUSH2 0xF JUMPI PUSH0 PUSH0 REVERT JUMPDEST POP PUSH1 0x40 MLOAD PUSH2 0x1479 CODESIZE SUB DUP1 PUSH2 0x1479 DUP4 CODECOPY DUP2 DUP2 ADD PUSH1 0x40 MSTORE DUP2 ADD SWAP1 PUSH2 0x31 SWAP2 SWAP1 PUSH2 0xD5 JUMP JUMPDEST DUP1 PUSH1 0x1 PUSH0 PUSH2 0x100 EXP DUP2 SLOAD DUP2 PUSH20 0xFFFFFFFFFFFFFFFFFFFFFFFFFFFFFFFFFFFFFFFF MUL NOT AND SWAP1 DUP4 PUSH20 0xFFFFFFFFFFFFFFFFFFFFFFFFFFFFFFFFFFFFFFFF AND MUL OR SWAP1 SSTORE POP POP PUSH2 0x100 JUMP JUMPDEST PUSH0 PUSH0 REVERT JUMPDEST PUSH0 PUSH20 0xFFFFFFFFFFFFFFFFFFFFFFFFFFFFFFFFFFFFFFFF DUP3 AND SWAP1 POP SWAP2 SWAP1 POP JUMP JUMPDEST PUSH0 PUSH2 0xA4 DUP3 PUSH2 0x7B JUMP JUMPDEST SWAP1 POP SWAP2 SWAP1 POP JUMP JUMPDEST PUSH2 0xB4 DUP2 PUSH2 0x9A JUMP JUMPDEST DUP2 EQ PUSH2 0xBE JUMPI PUSH0 PUSH0 REVERT JUMPDEST POP JUMP JUMPDEST PUSH0 DUP2 MLOAD SWAP1 POP PUSH2 0xCF DUP2 PUSH2 0xAB JUMP JUMPDEST SWAP3 SWAP2 POP POP JUMP JUMPDEST PUSH0 PUSH1 0x20 DUP3 DUP5 SUB SLT ISZERO PUSH2 0xEA JUMPI PUSH2 0xE9 PUSH2 0x77 JUMP JUMPDEST JUMPDEST PUSH0 PUSH2 0xF7 DUP5 DUP3 DUP6 ADD PUSH2 0xC1 JUMP JUMPDEST SWAP2 POP POP SWAP3 SWAP2 POP POP JUMP JUMPDEST PUSH2 0x136C DUP1 PUSH2 0x10D PUSH0 CODECOPY PUSH0 RETURN INVALID PUSH1 0x80 PUSH1 0x40 MSTORE PUSH1 0x4 CALLDATASIZE LT PUSH2 0x7A JUMPI PUSH0 CALLDATALOAD PUSH1 0xE0 SHR DUP1 PUSH4 0xA050A6A6 GT PUSH2 0x4D JUMPI DUP1 PUSH4 0xA050A6A6 EQ PUSH2 0x138 JUMPI DUP1 PUSH4 0xA757ECEC EQ PUSH2 0x174 JUMPI DUP1 PUSH4 0xC80EC522 EQ PUSH2 0x1B0 JUMPI DUP1 PUSH4 0xED88C68E EQ PUSH2 0x1C6 JUMPI PUSH2 0x7A JUMP JUMPDEST DUP1 PUSH4 0x16C9464 EQ PUSH2 0x7E JUMPI DUP1 PUSH4 0x410A1D32 EQ PUSH2 0xA8 JUMPI DUP1 PUSH4 0x56A01EFE EQ PUSH2 0xE4 JUMPI DUP1 PUSH4 0x8DA5CB5B EQ PUSH2 0x10E JUMPI JUMPDEST PUSH0 PUSH0 REVERT JUMPDEST CALLVALUE DUP1 ISZERO PUSH2 0x89 JUMPI PUSH0 PUSH0 REVERT JUMPDEST POP PUSH2 0x92 PUSH2 0x1E4 JUMP JUMPDEST PUSH1 0x40 MLOAD PUSH2 0x9F SWAP2 SWAP1 PUSH2 0xCA5 JUMP JUMPDEST PUSH1 0x40 MLOAD DUP1 SWAP2 SUB SWAP1 RETURN JUMPDEST CALLVALUE DUP1 ISZERO PUSH2 0xB3 JUMPI PUSH0 PUSH0 REVERT JUMPDEST POP PUSH2 0xCE PUSH1 0x4 DUP1 CALLDATASIZE SUB DUP2 ADD SWAP1 PUSH2 0xC9 SWAP2 SWAP1 PUSH2 0xCF3 JUMP JUMPDEST PUSH2 0x694 JUMP JUMPDEST PUSH1 0x40 MLOAD PUSH2 0xDB SWAP2 SWAP1 PUSH2 0xD36 JUMP JUMPDEST PUSH1 0x40 MLOAD DUP1 SWAP2 SUB SWAP1 RETURN JUMPDEST CALLVALUE DUP1 ISZERO PUSH2 0xEF JUMPI PUSH0 PUSH0 REVERT JUMPDEST POP PUSH2 0xF8 PUSH2 0x747 JUMP JUMPDEST PUSH1 0x40 MLOAD PUSH2 0x105 SWAP2 SWAP1 PUSH2 0xD36 JUMP JUMPDEST PUSH1 0x40 MLOAD DUP1 SWAP2 SUB SWAP1 RETURN JUMPDEST CALLVALUE DUP1 ISZERO PUSH2 0x119 JUMPI PUSH0 PUSH0 REVERT JUMPDEST POP PUSH2 0x122 PUSH2 0x76C JUMP JUMPDEST PUSH1 0x40 MLOAD PUSH2 0x12F SWAP2 SWAP1 PUSH2 0xD5E JUMP JUMPDEST PUSH1 0x40 MLOAD DUP1 SWAP2 SUB SWAP1 RETURN JUMPDEST CALLVALUE DUP1 ISZERO PUSH2 0x143 JUMPI PUSH0 PUSH0 REVERT JUMPDEST POP PUSH2 0x15E PUSH1 0x4 DUP1 CALLDATASIZE SUB DUP2 ADD SWAP1 PUSH2 0x159 SWAP2 SWAP1 PUSH2 0xCF3 JUMP JUMPDEST PUSH2 0x791 JUMP JUMPDEST PUSH1 0x40 MLOAD PUSH2 0x16B SWAP2 SWAP1 PUSH2 0xD36 JUMP JUMPDEST PUSH1 0x40 MLOAD DUP1 SWAP2 SUB SWAP1 RETURN JUMPDEST CALLVALUE DUP1 ISZERO PUSH2 0x17F JUMPI PUSH0 PUSH0 REVERT JUMPDEST POP PUSH2 0x19A PUSH1 0x4 DUP1 CALLDATASIZE SUB DUP2 ADD SWAP1 PUSH2 0x195 SWAP2 SWAP1 PUSH2 0xDA1 JUMP JUMPDEST PUSH2 0x7A5 JUMP JUMPDEST PUSH1 0x40 MLOAD PUSH2 0x1A7 SWAP2 SWAP1 PUSH2 0xD5E JUMP JUMPDEST PUSH1 0x40 MLOAD DUP1 SWAP2 SUB SWAP1 RETURN JUMPDEST CALLVALUE DUP1 ISZERO PUSH2 0x1BB JUMPI PUSH0 PUSH0 REVERT JUMPDEST POP PUSH2 0x1C4 PUSH2 0x7E0 JUMP JUMPDEST STOP JUMPDEST PUSH2 0x1CE PUSH2 0x935 JUMP JUMPDEST PUSH1 0x40 MLOAD PUSH2 0x1DB SWAP2 SWAP1 PUSH2 0xDE6 JUMP JUMPDEST PUSH1 0x40 MLOAD DUP1 SWAP2 SUB SWAP1 RETURN JUMPDEST PUSH1 0x60 PUSH0 PUSH1 0x3 PUSH8 0xFFFFFFFFFFFFFFFF DUP2 GT ISZERO PUSH2 0x202 JUMPI PUSH2 0x201 PUSH2 0xDFF JUMP JUMPDEST JUMPDEST PUSH1 0x40 MLOAD SWAP1 DUP1 DUP3 MSTORE DUP1 PUSH1 0x20 MUL PUSH1 0x20 ADD DUP3 ADD PUSH1 0x40 MSTORE DUP1 ISZERO PUSH2 0x230 JUMPI DUP2 PUSH1 0x20 ADD PUSH1 0x20 DUP3 MUL DUP1 CALLDATASIZE DUP4 CALLDATACOPY DUP1 DUP3 ADD SWAP2 POP POP SWAP1 POP JUMPDEST POP SWAP1 POP PUSH0 PUSH1 0x2 DUP1 SLOAD SWAP1 POP SUB PUSH2 0x248 JUMPI DUP1 SWAP2 POP POP PUSH2 0x691 JUMP JUMPDEST PUSH0 PUSH1 0x2 DUP1 SLOAD SWAP1 POP SWAP1 POP PUSH0 DUP2 PUSH8 0xFFFFFFFFFFFFFFFF DUP2 GT ISZERO PUSH2 0x26C JUMPI PUSH2 0x26B PUSH2 0xDFF JUMP JUMPDEST JUMPDEST PUSH1 0x40 MLOAD SWAP1 DUP1 DUP3 MSTORE DUP1 PUSH1 0x20 MUL PUSH1 0x20 ADD DUP3 ADD PUSH1 0x40 MSTORE DUP1 ISZERO PUSH2 0x29A JUMPI DUP2 PUSH1 0x20 ADD PUSH1 0x20 DUP3 MUL DUP1 CALLDATASIZE DUP4 CALLDATACOPY DUP1 DUP3 ADD SWAP2 POP POP SWAP1 POP JUMPDEST POP SWAP1 POP PUSH0 DUP3 PUSH8 0xFFFFFFFFFFFFFFFF DUP2 GT ISZERO PUSH2 0x2B8 JUMPI PUSH2 0x2B7 PUSH2 0xDFF JUMP JUMPDEST JUMPDEST PUSH1 0x40 MLOAD SWAP1 DUP1 DUP3 MSTORE DUP1 PUSH1 0x20 MUL PUSH1 0x20 ADD DUP3 ADD PUSH1 0x40 MSTORE DUP1 ISZERO PUSH2 0x2E6 JUMPI DUP2 PUSH1 0x20 ADD PUSH1 0x20 DUP3 MUL DUP1 CALLDATASIZE DUP4 CALLDATACOPY DUP1 DUP3 ADD SWAP2 POP POP SWAP1 POP JUMPDEST POP SWAP1 POP PUSH0 PUSH0 SWAP1 POP JUMPDEST DUP4 DUP2 LT ISZERO PUSH2 0x423 JUMPI PUSH1 0x2 DUP2 DUP2 SLOAD DUP2 LT PUSH2 0x30A JUMPI PUSH2 0x309 PUSH2 0xE2C JUMP JUMPDEST JUMPDEST SWAP1 PUSH0 MSTORE PUSH1 0x20 PUSH0 KECCAK256 ADD PUSH0 SWAP1 SLOAD SWAP1 PUSH2 0x100 EXP SWAP1 DIV PUSH20 0xFFFFFFFFFFFFFFFFFFFFFFFFFFFFFFFFFFFFFFFF AND DUP4 DUP3 DUP2 MLOAD DUP2 LT PUSH2 0x345 JUMPI PUSH2 0x344 PUSH2 0xE2C JUMP JUMPDEST JUMPDEST PUSH1 0x20 MUL PUSH1 0x20 ADD ADD SWAP1 PUSH20 0xFFFFFFFFFFFFFFFFFFFFFFFFFFFFFFFFFFFFFFFF AND SWAP1 DUP2 PUSH20 0xFFFFFFFFFFFFFFFFFFFFFFFFFFFFFFFFFFFFFFFF AND DUP2 MSTORE POP POP PUSH0 PUSH0 PUSH1 0x2 DUP4 DUP2 SLOAD DUP2 LT PUSH2 0x395 JUMPI PUSH2 0x394 PUSH2 0xE2C JUMP JUMPDEST JUMPDEST SWAP1 PUSH0 MSTORE PUSH1 0x20 PUSH0 KECCAK256 ADD PUSH0 SWAP1 SLOAD SWAP1 PUSH2 0x100 EXP SWAP1 DIV PUSH20 0xFFFFFFFFFFFFFFFFFFFFFFFFFFFFFFFFFFFFFFFF AND PUSH20 0xFFFFFFFFFFFFFFFFFFFFFFFFFFFFFFFFFFFFFFFF AND PUSH20 0xFFFFFFFFFFFFFFFFFFFFFFFFFFFFFFFFFFFFFFFF AND DUP2 MSTORE PUSH1 0x20 ADD SWAP1 DUP2 MSTORE PUSH1 0x20 ADD PUSH0 KECCAK256 SLOAD DUP3 DUP3 DUP2 MLOAD DUP2 LT PUSH2 0x40A JUMPI PUSH2 0x409 PUSH2 0xE2C JUMP JUMPDEST JUMPDEST PUSH1 0x20 MUL PUSH1 0x20 ADD ADD DUP2 DUP2 MSTORE POP POP DUP1 DUP1 PUSH1 0x1 ADD SWAP2 POP POP PUSH2 0x2EE JUMP JUMPDEST POP PUSH0 PUSH0 SWAP1 POP JUMPDEST DUP4 DUP2 LT ISZERO PUSH2 0x5F0 JUMPI PUSH0 PUSH1 0x1 DUP3 PUSH2 0x43F SWAP2 SWAP1 PUSH2 0xE86 JUMP JUMPDEST SWAP1 POP JUMPDEST DUP5 DUP2 LT ISZERO PUSH2 0x5E2 JUMPI DUP3 DUP2 DUP2 MLOAD DUP2 LT PUSH2 0x45D JUMPI PUSH2 0x45C PUSH2 0xE2C JUMP JUMPDEST JUMPDEST PUSH1 0x20 MUL PUSH1 0x20 ADD ADD MLOAD DUP4 DUP4 DUP2 MLOAD DUP2 LT PUSH2 0x478 JUMPI PUSH2 0x477 PUSH2 0xE2C JUMP JUMPDEST JUMPDEST PUSH1 0x20 MUL PUSH1 0x20 ADD ADD MLOAD LT ISZERO PUSH2 0x5D5 JUMPI PUSH0 DUP4 DUP4 DUP2 MLOAD DUP2 LT PUSH2 0x49A JUMPI PUSH2 0x499 PUSH2 0xE2C JUMP JUMPDEST JUMPDEST PUSH1 0x20 MUL PUSH1 0x20 ADD ADD MLOAD SWAP1 POP DUP4 DUP3 DUP2 MLOAD DUP2 LT PUSH2 0x4B7 JUMPI PUSH2 0x4B6 PUSH2 0xE2C JUMP JUMPDEST JUMPDEST PUSH1 0x20 MUL PUSH1 0x20 ADD ADD MLOAD DUP5 DUP5 DUP2 MLOAD DUP2 LT PUSH2 0x4D2 JUMPI PUSH2 0x4D1 PUSH2 0xE2C JUMP JUMPDEST JUMPDEST PUSH1 0x20 MUL PUSH1 0x20 ADD ADD DUP2 DUP2 MSTORE POP POP DUP1 DUP5 DUP4 DUP2 MLOAD DUP2 LT PUSH2 0x4F2 JUMPI PUSH2 0x4F1 PUSH2 0xE2C JUMP JUMPDEST JUMPDEST PUSH1 0x20 MUL PUSH1 0x20 ADD ADD DUP2 DUP2 MSTORE POP POP PUSH0 DUP6 DUP5 DUP2 MLOAD DUP2 LT PUSH2 0x512 JUMPI PUSH2 0x511 PUSH2 0xE2C JUMP JUMPDEST JUMPDEST PUSH1 0x20 MUL PUSH1 0x20 ADD ADD MLOAD SWAP1 POP DUP6 DUP4 DUP2 MLOAD DUP2 LT PUSH2 0x52F JUMPI PUSH2 0x52E PUSH2 0xE2C JUMP JUMPDEST JUMPDEST PUSH1 0x20 MUL PUSH1 0x20 ADD ADD MLOAD DUP7 DUP6 DUP2 MLOAD DUP2 LT PUSH2 0x54A JUMPI PUSH2 0x549 PUSH2 0xE2C JUMP JUMPDEST JUMPDEST PUSH1 0x20 MUL PUSH1 0x20 ADD ADD SWAP1 PUSH20 0xFFFFFFFFFFFFFFFFFFFFFFFFFFFFFFFFFFFFFFFF AND SWAP1 DUP2 PUSH20 0xFFFFFFFFFFFFFFFFFFFFFFFFFFFFFFFFFFFFFFFF AND DUP2 MSTORE POP POP DUP1 DUP7 DUP5 DUP2 MLOAD DUP2 LT PUSH2 0x598 JUMPI PUSH2 0x597 PUSH2 0xE2C JUMP JUMPDEST JUMPDEST PUSH1 0x20 MUL PUSH1 0x20 ADD ADD SWAP1 PUSH20 0xFFFFFFFFFFFFFFFFFFFFFFFFFFFFFFFFFFFFFFFF AND SWAP1 DUP2 PUSH20 0xFFFFFFFFFFFFFFFFFFFFFFFFFFFFFFFFFFFFFFFF AND DUP2 MSTORE POP POP POP POP JUMPDEST DUP1 DUP1 PUSH1 0x1 ADD SWAP2 POP POP PUSH2 0x442 JUMP JUMPDEST POP DUP1 DUP1 PUSH1 0x1 ADD SWAP2 POP POP PUSH2 0x429 JUMP JUMPDEST POP PUSH0 PUSH1 0x3 DUP5 LT PUSH2 0x601 JUMPI PUSH1 0x3 PUSH2 0x603 JUMP JUMPDEST DUP4 JUMPDEST SWAP1 POP PUSH0 PUSH0 SWAP1 POP JUMPDEST DUP2 DUP2 LT ISZERO PUSH2 0x687 JUMPI DUP4 DUP2 DUP2 MLOAD DUP2 LT PUSH2 0x625 JUMPI PUSH2 0x624 PUSH2 0xE2C JUMP JUMPDEST JUMPDEST PUSH1 0x20 MUL PUSH1 0x20 ADD ADD MLOAD DUP7 DUP3 DUP2 MLOAD DUP2 LT PUSH2 0x640 JUMPI PUSH2 0x63F PUSH2 0xE2C JUMP JUMPDEST JUMPDEST PUSH1 0x20 MUL PUSH1 0x20 ADD ADD SWAP1 PUSH20 0xFFFFFFFFFFFFFFFFFFFFFFFFFFFFFFFFFFFFFFFF AND SWAP1 DUP2 PUSH20 0xFFFFFFFFFFFFFFFFFFFFFFFFFFFFFFFFFFFFFFFF AND DUP2 MSTORE POP POP DUP1 DUP1 PUSH1 0x1 ADD SWAP2 POP POP PUSH2 0x60A JUMP JUMPDEST POP DUP5 SWAP6 POP POP POP POP POP POP JUMPDEST SWAP1 JUMP JUMPDEST PUSH0 PUSH0 PUSH20 0xFFFFFFFFFFFFFFFFFFFFFFFFFFFFFFFFFFFFFFFF AND DUP3 PUSH20 0xFFFFFFFFFFFFFFFFFFFFFFFFFFFFFFFFFFFFFFFF AND SUB PUSH2 0x703 JUMPI PUSH1 0x40 MLOAD PUSH32 0x8C379A000000000000000000000000000000000000000000000000000000000 DUP2 MSTORE PUSH1 0x4 ADD PUSH2 0x6FA SWAP1 PUSH2 0xF39 JUMP JUMPDEST PUSH1 0x40 MLOAD DUP1 SWAP2 SUB SWAP1 REVERT JUMPDEST PUSH0 PUSH0 DUP4 PUSH20 0xFFFFFFFFFFFFFFFFFFFFFFFFFFFFFFFFFFFFFFFF AND PUSH20 0xFFFFFFFFFFFFFFFFFFFFFFFFFFFFFFFFFFFFFFFF AND DUP2 MSTORE PUSH1 0x20 ADD SWAP1 DUP2 MSTORE PUSH1 0x20 ADD PUSH0 KECCAK256 SLOAD SWAP1 POP SWAP2 SWAP1 POP JUMP JUMPDEST PUSH0 PUSH0 PUSH1 0x18 PUSH2 0xE10 TIMESTAMP PUSH2 0x759 SWAP2 SWAP1 PUSH2 0xF84 JUMP JUMPDEST PUSH2 0x763 SWAP2 SWAP1 PUSH2 0xFB4 JUMP JUMPDEST SWAP1 POP DUP1 SWAP2 POP POP SWAP1 JUMP JUMPDEST PUSH1 0x1 PUSH0 SWAP1 SLOAD SWAP1 PUSH2 0x100 EXP SWAP1 DIV PUSH20 0xFFFFFFFFFFFFFFFFFFFFFFFFFFFFFFFFFFFFFFFF AND DUP2 JUMP JUMPDEST PUSH0 PUSH1 0x20 MSTORE DUP1 PUSH0 MSTORE PUSH1 0x40 PUSH0 KECCAK256 PUSH0 SWAP2 POP SWAP1 POP SLOAD DUP2 JUMP JUMPDEST PUSH1 0x2 DUP2 DUP2 SLOAD DUP2 LT PUSH2 0x7B4 JUMPI PUSH0 DUP1 REVERT JUMPDEST SWAP1 PUSH0 MSTORE PUSH1 0x20 PUSH0 KECCAK256 ADD PUSH0 SWAP2 POP SLOAD SWAP1 PUSH2 0x100 EXP SWAP1 DIV PUSH20 0xFFFFFFFFFFFFFFFFFFFFFFFFFFFFFFFFFFFFFFFF AND DUP2 JUMP JUMPDEST PUSH1 0x1 PUSH0 SWAP1 SLOAD SWAP1 PUSH2 0x100 EXP SWAP1 DIV PUSH20 0xFFFFFFFFFFFFFFFFFFFFFFFFFFFFFFFFFFFFFFFF AND PUSH20 0xFFFFFFFFFFFFFFFFFFFFFFFFFFFFFFFFFFFFFFFF AND CALLER PUSH20 0xFFFFFFFFFFFFFFFFFFFFFFFFFFFFFFFFFFFFFFFF AND EQ PUSH2 0x86F JUMPI PUSH1 0x40 MLOAD PUSH32 0x8C379A000000000000000000000000000000000000000000000000000000000 DUP2 MSTORE PUSH1 0x4 ADD PUSH2 0x866 SWAP1 PUSH2 0x102E JUMP JUMPDEST PUSH1 0x40 MLOAD DUP1 SWAP2 SUB SWAP1 REVERT JUMPDEST PUSH0 SELFBALANCE SWAP1 POP PUSH0 DUP2 GT ISZERO PUSH2 0x8F9 JUMPI CALLER PUSH20 0xFFFFFFFFFFFFFFFFFFFFFFFFFFFFFFFFFFFFFFFF AND PUSH2 0x8FC DUP3 SWAP1 DUP2 ISZERO MUL SWAP1 PUSH1 0x40 MLOAD PUSH0 PUSH1 0x40 MLOAD DUP1 DUP4 SUB DUP2 DUP6 DUP9 DUP9 CALL SWAP4 POP POP POP POP ISZERO DUP1 ISZERO PUSH2 0x8BE JUMPI RETURNDATASIZE PUSH0 PUSH0 RETURNDATACOPY RETURNDATASIZE PUSH0 REVERT JUMPDEST POP PUSH32 0xB80D46A1FCB96F3896E038DF66C1242504A8E49EFFECD0BF2473574707CA0121 CALLER DUP3 PUSH1 0x40 MLOAD PUSH2 0x8F0 SWAP3 SWAP2 SWAP1 PUSH2 0x1096 JUMP JUMPDEST PUSH1 0x40 MLOAD DUP1 SWAP2 SUB SWAP1 LOG1 JUMPDEST PUSH32 0xB80D46A1FCB96F3896E038DF66C1242504A8E49EFFECD0BF2473574707CA0121 CALLER DUP3 PUSH1 0x40 MLOAD PUSH2 0x92A SWAP3 SWAP2 SWAP1 PUSH2 0x111A JUMP JUMPDEST PUSH1 0x40 MLOAD DUP1 SWAP2 SUB SWAP1 LOG1 POP JUMP JUMPDEST PUSH0 PUSH1 0x8 PUSH2 0x940 PUSH2 0x747 JUMP JUMPDEST LT ISZERO DUP1 ISZERO PUSH2 0x956 JUMPI POP PUSH1 0xC PUSH2 0x953 PUSH2 0x747 JUMP JUMPDEST GT ISZERO JUMPDEST PUSH2 0x995 JUMPI PUSH1 0x40 MLOAD PUSH32 0x8C379A000000000000000000000000000000000000000000000000000000000 DUP2 MSTORE PUSH1 0x4 ADD PUSH2 0x98C SWAP1 PUSH2 0x119E JUMP JUMPDEST PUSH1 0x40 MLOAD DUP1 SWAP2 SUB SWAP1 REVERT JUMPDEST PUSH0 CALLVALUE GT PUSH2 0x9D7 JUMPI PUSH1 0x40 MLOAD PUSH32 0x8C379A000000000000000000000000000000000000000000000000000000000 DUP2 MSTORE PUSH1 0x4 ADD PUSH2 0x9CE SWAP1 PUSH2 0x122C JUMP JUMPDEST PUSH1 0x40 MLOAD DUP1 SWAP2 SUB SWAP1 REVERT JUMPDEST PUSH0 PUSH0 PUSH0 CALLER PUSH20 0xFFFFFFFFFFFFFFFFFFFFFFFFFFFFFFFFFFFFFFFF AND PUSH20 0xFFFFFFFFFFFFFFFFFFFFFFFFFFFFFFFFFFFFFFFF AND DUP2 MSTORE PUSH1 0x20 ADD SWAP1 DUP2 MSTORE PUSH1 0x20 ADD PUSH0 KECCAK256 SLOAD SUB PUSH2 0xA7B JUMPI PUSH1 0x2 CALLER SWAP1 DUP1 PUSH1 0x1 DUP2 SLOAD ADD DUP1 DUP3 SSTORE DUP1 SWAP2 POP POP PUSH1 0x1 SWAP1 SUB SWAP1 PUSH0 MSTORE PUSH1 0x20 PUSH0 KECCAK256 ADD PUSH0 SWAP1 SWAP2 SWAP1 SWAP2 SWAP1 SWAP2 PUSH2 0x100 EXP DUP2 SLOAD DUP2 PUSH20 0xFFFFFFFFFFFFFFFFFFFFFFFFFFFFFFFFFFFFFFFF MUL NOT AND SWAP1 DUP4 PUSH20 0xFFFFFFFFFFFFFFFFFFFFFFFFFFFFFFFFFFFFFFFF AND MUL OR SWAP1 SSTORE POP JUMPDEST CALLVALUE PUSH0 PUSH0 CALLER PUSH20 0xFFFFFFFFFFFFFFFFFFFFFFFFFFFFFFFFFFFFFFFF AND PUSH20 0xFFFFFFFFFFFFFFFFFFFFFFFFFFFFFFFFFFFFFFFF AND DUP2 MSTORE PUSH1 0x20 ADD SWAP1 DUP2 MSTORE PUSH1 0x20 ADD PUSH0 KECCAK256 PUSH0 DUP3 DUP3 SLOAD PUSH2 0xAC6 SWAP2 SWAP1 PUSH2 0xE86 JUMP JUMPDEST SWAP3 POP POP DUP2 SWAP1 SSTORE POP PUSH0 ADDRESS PUSH20 0xFFFFFFFFFFFFFFFFFFFFFFFFFFFFFFFFFFFFFFFF AND CALLVALUE PUSH1 0x40 MLOAD PUSH2 0xAF2 SWAP1 PUSH2 0x1277 JUMP JUMPDEST PUSH0 PUSH1 0x40 MLOAD DUP1 DUP4 SUB DUP2 DUP6 DUP8 GAS CALL SWAP3 POP POP POP RETURNDATASIZE DUP1 PUSH0 DUP2 EQ PUSH2 0xB2C JUMPI PUSH1 0x40 MLOAD SWAP2 POP PUSH1 0x1F NOT PUSH1 0x3F RETURNDATASIZE ADD AND DUP3 ADD PUSH1 0x40 MSTORE RETURNDATASIZE DUP3 MSTORE RETURNDATASIZE PUSH0 PUSH1 0x20 DUP5 ADD RETURNDATACOPY PUSH2 0xB31 JUMP JUMPDEST PUSH1 0x60 SWAP2 POP JUMPDEST POP POP SWAP1 POP DUP1 PUSH2 0xB7C JUMPI PUSH32 0x5208FCCD834797CD8B53844171C3FD9307640328101D77591EB870F8EADECAC0 CALLER CALLVALUE PUSH1 0x40 MLOAD PUSH2 0xB6B SWAP3 SWAP2 SWAP1 PUSH2 0x12D5 JUMP JUMPDEST PUSH1 0x40 MLOAD DUP1 SWAP2 SUB SWAP1 LOG1 PUSH0 SWAP2 POP POP PUSH2 0xBBB JUMP JUMPDEST PUSH32 0x5D8BC849764969EB1BCC6D0A2F55999D0167C1CCEC240A4F39CF664CA9C4148E CALLER CALLVALUE PUSH1 0x40 MLOAD PUSH2 0xBAD SWAP3 SWAP2 SWAP1 PUSH2 0x130F JUMP JUMPDEST PUSH1 0x40 MLOAD DUP1 SWAP2 SUB SWAP1 LOG1 PUSH1 0x1 SWAP2 POP POP JUMPDEST SWAP1 JUMP JUMPDEST PUSH0 DUP2 MLOAD SWAP1 POP SWAP2 SWAP1 POP JUMP JUMPDEST PUSH0 DUP3 DUP3 MSTORE PUSH1 0x20 DUP3 ADD SWAP1 POP SWAP3 SWAP2 POP POP JUMP JUMPDEST PUSH0 DUP2 SWAP1 POP PUSH1 0x20 DUP3 ADD SWAP1 POP SWAP2 SWAP1 POP JUMP JUMPDEST PUSH0 PUSH20 0xFFFFFFFFFFFFFFFFFFFFFFFFFFFFFFFFFFFFFFFF DUP3 AND SWAP1 POP SWAP2 SWAP1 POP JUMP JUMPDEST PUSH0 PUSH2 0xC10 DUP3 PUSH2 0xBE7 JUMP JUMPDEST SWAP1 POP SWAP2 SWAP1 POP JUMP JUMPDEST PUSH2 0xC20 DUP2 PUSH2 0xC06 JUMP JUMPDEST DUP3 MSTORE POP POP JUMP JUMPDEST PUSH0 PUSH2 0xC31 DUP4 DUP4 PUSH2 0xC17 JUMP JUMPDEST PUSH1 0x20 DUP4 ADD SWAP1 POP SWAP3 SWAP2 POP POP JUMP JUMPDEST PUSH0 PUSH1 0x20 DUP3 ADD SWAP1 POP SWAP2 SWAP1 POP JUMP JUMPDEST PUSH0 PUSH2 0xC53 DUP3 PUSH2 0xBBE JUMP JUMPDEST PUSH2 0xC5D DUP2 DUP6 PUSH2 0xBC8 JUMP JUMPDEST SWAP4 POP PUSH2 0xC68 DUP4 PUSH2 0xBD8 JUMP JUMPDEST DUP1 PUSH0 JUMPDEST DUP4 DUP2 LT ISZERO PUSH2 0xC98 JUMPI DUP2 MLOAD PUSH2 0xC7F DUP9 DUP3 PUSH2 0xC26 JUMP JUMPDEST SWAP8 POP PUSH2 0xC8A DUP4 PUSH2 0xC3D JUMP JUMPDEST SWAP3 POP POP PUSH1 0x1 DUP2 ADD SWAP1 POP PUSH2 0xC6B JUMP JUMPDEST POP DUP6 SWAP4 POP POP POP POP SWAP3 SWAP2 POP POP JUMP JUMPDEST PUSH0 PUSH1 0x20 DUP3 ADD SWAP1 POP DUP2 DUP2 SUB PUSH0 DUP4 ADD MSTORE PUSH2 0xCBD DUP2 DUP5 PUSH2 0xC49 JUMP JUMPDEST SWAP1 POP SWAP3 SWAP2 POP POP JUMP JUMPDEST PUSH0 PUSH0 REVERT JUMPDEST PUSH2 0xCD2 DUP2 PUSH2 0xC06 JUMP JUMPDEST DUP2 EQ PUSH2 0xCDC JUMPI PUSH0 PUSH0 REVERT JUMPDEST POP JUMP JUMPDEST PUSH0 DUP2 CALLDATALOAD SWAP1 POP PUSH2 0xCED DUP2 PUSH2 0xCC9 JUMP JUMPDEST SWAP3 SWAP2 POP POP JUMP JUMPDEST PUSH0 PUSH1 0x20 DUP3 DUP5 SUB SLT ISZERO PUSH2 0xD08 JUMPI PUSH2 0xD07 PUSH2 0xCC5 JUMP JUMPDEST JUMPDEST PUSH0 PUSH2 0xD15 DUP5 DUP3 DUP6 ADD PUSH2 0xCDF JUMP JUMPDEST SWAP2 POP POP SWAP3 SWAP2 POP POP JUMP JUMPDEST PUSH0 DUP2 SWAP1 POP SWAP2 SWAP1 POP JUMP JUMPDEST PUSH2 0xD30 DUP2 PUSH2 0xD1E JUMP JUMPDEST DUP3 MSTORE POP POP JUMP JUMPDEST PUSH0 PUSH1 0x20 DUP3 ADD SWAP1 POP PUSH2 0xD49 PUSH0 DUP4 ADD DUP5 PUSH2 0xD27 JUMP JUMPDEST SWAP3 SWAP2 POP POP JUMP JUMPDEST PUSH2 0xD58 DUP2 PUSH2 0xC06 JUMP JUMPDEST DUP3 MSTORE POP POP JUMP JUMPDEST PUSH0 PUSH1 0x20 DUP3 ADD SWAP1 POP PUSH2 0xD71 PUSH0 DUP4 ADD DUP5 PUSH2 0xD4F JUMP JUMPDEST SWAP3 SWAP2 POP POP JUMP JUMPDEST PUSH2 0xD80 DUP2 PUSH2 0xD1E JUMP JUMPDEST DUP2 EQ PUSH2 0xD8A JUMPI PUSH0 PUSH0 REVERT JUMPDEST POP JUMP JUMPDEST PUSH0 DUP2 CALLDATALOAD SWAP1 POP PUSH2 0xD9B DUP2 PUSH2 0xD77 JUMP JUMPDEST SWAP3 SWAP2 POP POP JUMP JUMPDEST PUSH0 PUSH1 0x20 DUP3 DUP5 SUB SLT ISZERO PUSH2 0xDB6 JUMPI PUSH2 0xDB5 PUSH2 0xCC5 JUMP JUMPDEST JUMPDEST PUSH0 PUSH2 0xDC3 DUP5 DUP3 DUP6 ADD PUSH2 0xD8D JUMP JUMPDEST SWAP2 POP POP SWAP3 SWAP2 POP POP JUMP JUMPDEST PUSH0 DUP2 ISZERO ISZERO SWAP1 POP SWAP2 SWAP1 POP JUMP JUMPDEST PUSH2 0xDE0 DUP2 PUSH2 0xDCC JUMP JUMPDEST DUP3 MSTORE POP POP JUMP JUMPDEST PUSH0 PUSH1 0x20 DUP3 ADD SWAP1 POP PUSH2 0xDF9 PUSH0 DUP4 ADD DUP5 PUSH2 0xDD7 JUMP JUMPDEST SWAP3 SWAP2 POP POP JUMP JUMPDEST PUSH32 0x4E487B7100000000000000000000000000000000000000000000000000000000 PUSH0 MSTORE PUSH1 0x41 PUSH1 0x4 MSTORE PUSH1 0x24 PUSH0 REVERT JUMPDEST PUSH32 0x4E487B7100000000000000000000000000000000000000000000000000000000 PUSH0 MSTORE PUSH1 0x32 PUSH1 0x4 MSTORE PUSH1 0x24 PUSH0 REVERT JUMPDEST PUSH32 0x4E487B7100000000000000000000000000000000000000000000000000000000 PUSH0 MSTORE PUSH1 0x11 PUSH1 0x4 MSTORE PUSH1 0x24 PUSH0 REVERT JUMPDEST PUSH0 PUSH2 0xE90 DUP3 PUSH2 0xD1E JUMP JUMPDEST SWAP2 POP PUSH2 0xE9B DUP4 PUSH2 0xD1E JUMP JUMPDEST SWAP3 POP DUP3 DUP3 ADD SWAP1 POP DUP1 DUP3 GT ISZERO PUSH2 0xEB3 JUMPI PUSH2 0xEB2 PUSH2 0xE59 JUMP JUMPDEST JUMPDEST SWAP3 SWAP2 POP POP JUMP JUMPDEST PUSH0 DUP3 DUP3 MSTORE PUSH1 0x20 DUP3 ADD SWAP1 POP SWAP3 SWAP2 POP POP JUMP JUMPDEST PUSH32 0x717565727920616464726573732063616E6E6F74206265206164647265737320 PUSH0 DUP3 ADD MSTORE PUSH32 0x3000000000000000000000000000000000000000000000000000000000000000 PUSH1 0x20 DUP3 ADD MSTORE POP JUMP JUMPDEST PUSH0 PUSH2 0xF23 PUSH1 0x21 DUP4 PUSH2 0xEB9 JUMP JUMPDEST SWAP2 POP PUSH2 0xF2E DUP3 PUSH2 0xEC9 JUMP JUMPDEST PUSH1 0x40 DUP3 ADD SWAP1 POP SWAP2 SWAP1 POP JUMP JUMPDEST PUSH0 PUSH1 0x20 DUP3 ADD SWAP1 POP DUP2 DUP2 SUB PUSH0 DUP4 ADD MSTORE PUSH2 0xF50 DUP2 PUSH2 0xF17 JUMP JUMPDEST SWAP1 POP SWAP2 SWAP1 POP JUMP JUMPDEST PUSH32 0x4E487B7100000000000000000000000000000000000000000000000000000000 PUSH0 MSTORE PUSH1 0x12 PUSH1 0x4 MSTORE PUSH1 0x24 PUSH0 REVERT JUMPDEST PUSH0 PUSH2 0xF8E DUP3 PUSH2 0xD1E JUMP JUMPDEST SWAP2 POP PUSH2 0xF99 DUP4 PUSH2 0xD1E JUMP JUMPDEST SWAP3 POP DUP3 PUSH2 0xFA9 JUMPI PUSH2 0xFA8 PUSH2 0xF57 JUMP JUMPDEST JUMPDEST DUP3 DUP3 DIV SWAP1 POP SWAP3 SWAP2 POP POP JUMP JUMPDEST PUSH0 PUSH2 0xFBE DUP3 PUSH2 0xD1E JUMP JUMPDEST SWAP2 POP PUSH2 0xFC9 DUP4 PUSH2 0xD1E JUMP JUMPDEST SWAP3 POP DUP3 PUSH2 0xFD9 JUMPI PUSH2 0xFD8 PUSH2 0xF57 JUMP JUMPDEST JUMPDEST DUP3 DUP3 MOD SWAP1 POP SWAP3 SWAP2 POP POP JUMP JUMPDEST PUSH32 0x6F6E6C79206F776E65722063616E2077697468647261776E0000000000000000 PUSH0 DUP3 ADD MSTORE POP JUMP JUMPDEST PUSH0 PUSH2 0x1018 PUSH1 0x18 DUP4 PUSH2 0xEB9 JUMP JUMPDEST SWAP2 POP PUSH2 0x1023 DUP3 PUSH2 0xFE4 JUMP JUMPDEST PUSH1 0x20 DUP3 ADD SWAP1 POP SWAP2 SWAP1 POP JUMP JUMPDEST PUSH0 PUSH1 0x20 DUP3 ADD SWAP1 POP DUP2 DUP2 SUB PUSH0 DUP4 ADD MSTORE PUSH2 0x1045 DUP2 PUSH2 0x100C JUMP JUMPDEST SWAP1 POP SWAP2 SWAP1 POP JUMP JUMPDEST PUSH32 0x77697468647261776E2073756363657373000000000000000000000000000000 PUSH0 DUP3 ADD MSTORE POP JUMP JUMPDEST PUSH0 PUSH2 0x1080 PUSH1 0x11 DUP4 PUSH2 0xEB9 JUMP JUMPDEST SWAP2 POP PUSH2 0x108B DUP3 PUSH2 0x104C JUMP JUMPDEST PUSH1 0x20 DUP3 ADD SWAP1 POP SWAP2 SWAP1 POP JUMP JUMPDEST PUSH0 PUSH1 0x60 DUP3 ADD SWAP1 POP PUSH2 0x10A9 PUSH0 DUP4 ADD DUP6 PUSH2 0xD4F JUMP JUMPDEST PUSH2 0x10B6 PUSH1 0x20 DUP4 ADD DUP5 PUSH2 0xD27 JUMP JUMPDEST DUP2 DUP2 SUB PUSH1 0x40 DUP4 ADD MSTORE PUSH2 0x10C7 DUP2 PUSH2 0x1074 JUMP JUMPDEST SWAP1 POP SWAP4 SWAP3 POP POP POP JUMP JUMPDEST PUSH32 0x77697468647261776E206661696C656400000000000000000000000000000000 PUSH0 DUP3 ADD MSTORE POP JUMP JUMPDEST PUSH0 PUSH2 0x1104 PUSH1 0x10 DUP4 PUSH2 0xEB9 JUMP JUMPDEST SWAP2 POP PUSH2 0x110F DUP3 PUSH2 0x10D0 JUMP JUMPDEST PUSH1 0x20 DUP3 ADD SWAP1 POP SWAP2 SWAP1 POP JUMP JUMPDEST PUSH0 PUSH1 0x60 DUP3 ADD SWAP1 POP PUSH2 0x112D PUSH0 DUP4 ADD DUP6 PUSH2 0xD4F JUMP JUMPDEST PUSH2 0x113A PUSH1 0x20 DUP4 ADD DUP5 PUSH2 0xD27 JUMP JUMPDEST DUP2 DUP2 SUB PUSH1 0x40 DUP4 ADD MSTORE PUSH2 0x114B DUP2 PUSH2 0x10F8 JUMP JUMPDEST SWAP1 POP SWAP4 SWAP3 POP POP POP JUMP JUMPDEST PUSH32 0x646F6E6174652074696D65206578636565640000000000000000000000000000 PUSH0 DUP3 ADD MSTORE POP JUMP JUMPDEST PUSH0 PUSH2 0x1188 PUSH1 0x12 DUP4 PUSH2 0xEB9 JUMP JUMPDEST SWAP2 POP PUSH2 0x1193 DUP3 PUSH2 0x1154 JUMP JUMPDEST PUSH1 0x20 DUP3 ADD SWAP1 POP SWAP2 SWAP1 POP JUMP JUMPDEST PUSH0 PUSH1 0x20 DUP3 ADD SWAP1 POP DUP2 DUP2 SUB PUSH0 DUP4 ADD MSTORE PUSH2 0x11B5 DUP2 PUSH2 0x117C JUMP JUMPDEST SWAP1 POP SWAP2 SWAP1 POP JUMP JUMPDEST PUSH32 0x646F6E61746520616D6F756E74206D7573737420677265617468657220746861 PUSH0 DUP3 ADD MSTORE PUSH32 0x6E20300000000000000000000000000000000000000000000000000000000000 PUSH1 0x20 DUP3 ADD MSTORE POP JUMP JUMPDEST PUSH0 PUSH2 0x1216 PUSH1 0x23 DUP4 PUSH2 0xEB9 JUMP JUMPDEST SWAP2 POP PUSH2 0x1221 DUP3 PUSH2 0x11BC JUMP JUMPDEST PUSH1 0x40 DUP3 ADD SWAP1 POP SWAP2 SWAP1 POP JUMP JUMPDEST PUSH0 PUSH1 0x20 DUP3 ADD SWAP1 POP DUP2 DUP2 SUB PUSH0 DUP4 ADD MSTORE PUSH2 0x1243 DUP2 PUSH2 0x120A JUMP JUMPDEST SWAP1 POP SWAP2 SWAP1 POP JUMP JUMPDEST PUSH0 DUP2 SWAP1 POP SWAP3 SWAP2 POP POP JUMP JUMPDEST POP JUMP JUMPDEST PUSH0 PUSH2 0x1262 PUSH0 DUP4 PUSH2 0x124A JUMP JUMPDEST SWAP2 POP PUSH2 0x126D DUP3 PUSH2 0x1254 JUMP JUMPDEST PUSH0 DUP3 ADD SWAP1 POP SWAP2 SWAP1 POP JUMP JUMPDEST PUSH0 PUSH2 0x1281 DUP3 PUSH2 0x1257 JUMP JUMPDEST SWAP2 POP DUP2 SWAP1 POP SWAP2 SWAP1 POP JUMP JUMPDEST PUSH32 0x646F6E617465206661696C656400000000000000000000000000000000000000 PUSH0 DUP3 ADD MSTORE POP JUMP JUMPDEST PUSH0 PUSH2 0x12BF PUSH1 0xD DUP4 PUSH2 0xEB9 JUMP JUMPDEST SWAP2 POP PUSH2 0x12CA DUP3 PUSH2 0x128B JUMP JUMPDEST PUSH1 0x20 DUP3 ADD SWAP1 POP SWAP2 SWAP1 POP JUMP JUMPDEST PUSH0 PUSH1 0x60 DUP3 ADD SWAP1 POP PUSH2 0x12E8 PUSH0 DUP4 ADD DUP6 PUSH2 0xD4F JUMP JUMPDEST PUSH2 0x12F5 PUSH1 0x20 DUP4 ADD DUP5 PUSH2 0xD27 JUMP JUMPDEST DUP2 DUP2 SUB PUSH1 0x40 DUP4 ADD MSTORE PUSH2 0x1306 DUP2 PUSH2 0x12B3 JUMP JUMPDEST SWAP1 POP SWAP4 SWAP3 POP POP POP JUMP JUMPDEST PUSH0 PUSH1 0x40 DUP3 ADD SWAP1 POP PUSH2 0x1322 PUSH0 DUP4 ADD DUP6 PUSH2 0xD4F JUMP JUMPDEST PUSH2 0x132F PUSH1 0x20 DUP4 ADD DUP5 PUSH2 0xD27 JUMP JUMPDEST SWAP4 SWAP3 POP POP POP JUMP INVALID LOG2 PUSH5 0x6970667358 0x22 SLT KECCAK256 CHAINID 0xCA SUB 0x4B SSTORE BASEFEE XOR 0x2A EXP BLOBHASH SWAP4 0xB1 0xBD 0xD5 0xB6 SGT CODECOPY 0xAF CALLVALUE SWAP12 PUSH8 0x3778F63F819C7574 0xD5 MOD ADDMOD PUSH5 0x736F6C6343 STOP ADDMOD 0x1E STOP CALLER "
				},
				"gasEstimates": {
					"creation": {
						"codeDepositCost": "994400",
						"executionCost": "infinite",
						"totalCost": "infinite"
					},
					"external": {
						"donate()": "infinite",
						"donateAmounts(address)": "2801",
						"doners(uint256)": "4966",
						"getDonation(address)": "2885",
						"getTopThreeDonateAddr()": "infinite",
						"isDonateTime()": "infinite",
						"owner()": "2575",
						"withdrawn()": "infinite"
					}
				},
				"methodIdentifiers": {
					"donate()": "ed88c68e",
					"donateAmounts(address)": "a050a6a6",
					"doners(uint256)": "a757ecec",
					"getDonation(address)": "410a1d32",
					"getTopThreeDonateAddr()": "016c9464",
					"isDonateTime()": "56a01efe",
					"owner()": "8da5cb5b",
					"withdrawn()": "c80ec522"
				}
			},
			"storageLayout": {
				"storage": [
					{
						"astId": 5,
						"contract": "task3/BeggingContract.sol:BeggingContract",
						"label": "donateAmounts",
						"offset": 0,
						"slot": "0",
						"type": "t_mapping(t_address,t_uint256)"
					},
					{
						"astId": 7,
						"contract": "task3/BeggingContract.sol:BeggingContract",
						"label": "owner",
						"offset": 0,
						"slot": "1",
						"type": "t_address"
					},
					{
						"astId": 10,
						"contract": "task3/BeggingContract.sol:BeggingContract",
						"label": "doners",
						"offset": 0,
						"slot": "2",
						"type": "t_array(t_address)dyn_storage"
					}
				],
				"types": {
					"t_address": {
						"encoding": "inplace",
						"label": "address",
						"numberOfBytes": "20"
					},
					"t_array(t_address)dyn_storage": {
						"base": "t_address",
						"encoding": "dynamic_array",
						"label": "address[]",
						"numberOfBytes": "32"
					},
					"t_mapping(t_address,t_uint256)": {
						"encoding": "mapping",
						"key": "t_address",
						"label": "mapping(address => uint256)",
						"numberOfBytes": "32",
						"value": "t_uint256"
					},
					"t_uint256": {
						"encoding": "inplace",
						"label": "uint256",
						"numberOfBytes": "32"
					}
				}
			},
			"userdoc": {
				"kind": "user",
				"methods": {},
				"version": 1
			}
		}
	}
}